S01700004763634170706C69636174696F6E312E737265635B
S11300000C94B4010C94D1010C94D1010C9476029B
S11300100C94D1010C94D1010C94D1010C94D10114
S11300200C94D1010C94D1010C94D1010C94D10104
S11300300C94D1010C94D1010C94D1010C94D101F4
S11300400C94D1010C94D1010C94D1010C94D101E4
S11300500C94D1010C94D1010C94D1010C94D101D4
S11300600C94D1010C94D1010C94D1010C94D101C4
S1130070000000000000000000065F5F06000000B2
S11300800007070007070000147F7F147F7F140018
S1130090242E6B6B3A120000466630180C66620020
S11300A0307A4F5D377A48000407030000000000EF
S11300B0001C3E63410000000041633E1C00000040
S11300C0082A3E1C1C3E2A0808083E3E0808000078
S11300D000A0E0600000000008080808080800000C
S11300E000006060000000006030180C060301008E
S11300F03E7F594D7F3E000042427F7F40400000DA
S1130100627359496F660000226349497F360000D3
S1130110181C16137F7F1000276745457D390000A2
S11301203C7E4B4979300000036371190F070000CE
S1130130367F49497F360000064F49693F1E00005B
S113014000006C6C0000000000A0EC6C00000000DB
S1130150081C366341000000141414141414000025
S1130160004163361C080000020351590F060000C9
S11301703E7F415D5D1F1E007C7E13137E7C00006C
S1130180417F7F49497F36001C3E63414163220021
S1130190417F7F41637F1C00417F7F495D41630054
S11301A0417F7F491D0103001C3E6341517372006E
S11301B07F7F08087F7F000000417F7F41000000AF
S11301C0307040417F3F0100417F7F081C7763000E
S11301D0417F7F41406070007F7F060C067F7F0077
S11301E07F7F060C187F7F001C3E6341633E1C002A
S11301F0417F7F49090F06001E3F21717F5E000089
S1130200417F7F19396F460026674D597B320000C4
S113021003417F7F410300007F7F40407F7F0000D8
S11302201F3F60603F1F00007F7F3018307F7F00DA
S113023063771C081C776300074F78784F0700002A
S11302406773594D47637100007F7F41410000008F
S11302500103060C183060000041417F7F0000005C
S1130260080C0603060C0800808080808080808053
S11302700000030704000000207454543C7840003C
S1130280413F7F44447C3800387C44446C2800005F
S1130290307848493F7F4000387C54545C18000053
S11302A0487E7F490302000098BCA4A4F87C0400A3
S11302B0417F7F08047C780000447D7D400000007D
S11302C040C484FD7D000000417F7F10386C4400F1
S11302D000417F7F400000007C7C0C180C7C78007F
S11302E07C7C04047C780000387C44447C38000026
S11302F084FCF8A4243C1800183C24A4F8FC8400D2
S1130300447C78441C180000485C54547424000055
S113031000043E7F442400003C7C40403C7C400080
S11303201C3C60603C1C00003C7C6030607C3C00F9
S1130330446C3810386C44009CBCA0A0FC7C0000C9
S11303404C64745C4C64000008083E774141000032
S113035000000077770000004141773E0808000064
S1130360020301030203010011241FBECFEFD4E0F6
S1130370DEBFCDBF11E0A0E0B1E0E8E4F4E102C0EB
S113038005900D92AC3CB107D9F721E0ACECB1E09B
S113039001C01D92A43FB207E1F70E9472030C94BE
S11303A0220A0C94000085B7806885BF80B78062FC
S11303B080BF309880E090E00895B89A83B7886051
S11303C083BF83B78F7B83BF83B7806183BF83B7CA
S11303D0816083BF8AE081BF08958068E0E0F4E132
S11303E0808384EA8A95F1F7808108950E94F70258
S11303F0F894389A86B7816086BF8BB780628BBFCA
S113040043E06FEF8BE20E94D50240E06FEF8CE295
S11304100E94D502309878948EE00E94A402807ED7
S1130420803441F08AE091E09F938F930E9400060C
S11304300F900F90089580E30E94A40283FB882705
S113044080F991E089270895CF92DF92EF92FF928D
S11304501F93CF93DF936C010E941B02882391F1B9
S1130460F6018081918196958795969587959695C5
S1130470879561E40E94B602F601808162E4829568
S1130480880F807E0E94B60265E4F60182810E9494
S1130490B602F60182818823A9F07601F3E0EF0E1B
S11304A0F11C16E4C0E0D0E0612FF70181917F01D7
S11304B00E94B60221961F5FF601828190E0C81760
S11304C0D90794F382E80E94CA02DF91CF911F9169
S11304D0FF90EF90DF90CF90089540E061E08CE2D0
S11304E00E94D50281E08093CC0108951F920F925F
S11304F00FB60F9211242F933F934F935F936F93F3
S11305007F938F939F93AF93BF93EF93FF938FEF5B
S11305109FE20197F1F700C000000E946D02FF9175
S1130520EF91BF91AF919F918F917F916F915F9167
S11305304F913F912F910F900FBE0F901F901895E0
S1130540C4980895C49A0895CF93C82F0E94A00216
S113055083E00E942D038C2F0E942D030E943103FF
S1130560C82F0E94A2028C2FCF910895CF93DF93BE
S1130570C82FD62F0E94A00282E00E942D038D2F47
S11305800E942D038C2F0E942D030E94A202DF9152
S1130590CF910895CF93C82F0E94A0028C2F0E9460
S11305A02D030E94A202CF9108951F93CF93DF934E
S11305B0182FD62FC42F0E94A00285E00E942D037D
S11305C0812F0E942D038D2F0E942D038C2F0E94BA
S11305D02D030E94A202DF91CF911F9108950E94E2
S11305E0A00280EC0E942D030E94A20208950E94A2
S11305F025030E94EF0260E680E60E94B60260E7EF
S113060080E70E94B60268E281E00E94B60269E2D5
S113061085EB0E94B6026AE283E40E94B6028EE091
S11306200E94A402807E803851F08CE291E09F9376
S11306308F930E9400060F900F9081E008956FE061
S113064080E00E94B60280E0089587B3806B87BB88
S1130650BE988DB181658DB908958FB9779BFECF12
S1130660089580E00E942D03779BFECF8FB10895FB
S11306708130910539F08230910531F0892B69F48C
S1130680B1990EC0B2990FC086B3869586958695AA
S113069091E08927817090E0089580E090E00895CA
S11306A081E090E0089581E090E00895CF9380E0A8
S11306B090E00E94ED01C82F81E090E00E94ED01DE
S11306C0E9EFF0E03197F1F700C00000C093CE01EC
S11306D08093CD01CF91089587B3817F87BB0E941A
S11306E056030895CF93DF93CDB7DEB72B970FB69C
S11306F0F894DEBF0FBECDBF8FE190E00E94A80545
S11307000E9498050E94D3010E94DD010E946C039F
S11307100E94E0040E94D40460E080E00E947F050F
S11307200E94F5030E941A040E94F6011A8219829B
S113073086E08B8380E691E00E94630460E081E0C0
S11307400E947F0580E791E00E94630460E082E0FC
S11307500E947F0581E891E00E9463042FE38BE40B
S11307609CE4215080409040E1F700C000000E94CA
S1130770D40410E0FF24F39400E080E090E00E94B1
S1130780380380E090E00E94380381E090E00E940A
S1130790380381E090E00E94380382E090E00E94F8
S11307A03803892B09F01F2D82E090E00E94380362
S11307B0892B09F4102F80E090E00E94ED018C83D6
S11307C081E090E00E94ED018D8383E090E00E943F
S11307D0ED018E8382E090E00E94ED018F83188703
S11307E0CE0101960E942402C8CFA4EEB6E08EE8A2
S11307F091E011969C938E9313961C921E921297DD
S1130800EBEDF1E01596FC93EE93149788E991E0F3
S113081091838083B383A283158214828CE0FD01CB
S1130820AFECB1E001900D928A95E1F782E08093FC
S1130830E7010895B39926C0E091E701F0E0EE0FD7
S1130840FF1FE153FE4F0190F081E02D3097D1F06E
S11308508CE0AFECB1E001900D928A95E1F782E073
S11308608093E701EFECF1E081818F9380818F9396
S113087088EA91E09F938F930E9400060F900F9057
S11308800F900F900895282F30E0F901EE0FFF1F0D
S1130890EE0FFF1FEE0FFF1FE059F040220F331F32
S11308A0220F331F220F331F28583040A091060116
S11308B0B091070194919C933196E217F307B1F735
S11308C080E090E00895EF92FF920F931F93CF93EF
S11308D0DF938C017C01C0E0D0E006C0F701819178
S11308E07F010E9443042196F80101900020E9F75A
S11308F03197E01BF10BCE17DF0780F3DF91CF9127
S11309001F910F91FF90EF9008951092E9011092BA
S1130910E801E0910801F091090181E28083E0910E
S11309200801F09109011082E0910801F091090198
S11309308FE78083E0910801F091090182E28083CE
S1130940E0910801F09109011082E0910801F09111
S1130950090187E0808380E090E008958093E901B5
S1130960E0910801F09109011082E0910801F091F1
S1130970090190E19083E0910801F091090180550B
S1130980808380E090E008950E94AE0480E890E0C7
S1130990E0910601F091070110820197C9F70E94C6
S11309A0850480E090E00895CF93C0E08C2F0E94EE
S11309B0C404CF5FC830D1F780E090E0CF910895B0
S11309C085B7806885BF80B7806280BFE0910801E9
S11309D0F09109018EEA8083E0910801F091090108
S11309E081EA8083E0910801F09109018AED808316
S11309F0E0910801F091090182E18083E09108010E
S1130A00F091090188EC8083E0910801F0910901DB
S1130A1088EA8083E0910801F09109018FE38083E3
S1130A20E0910801F091090185ED8083E0910801CE
S1130A30F091090180E88083E0910801F0910901B7
S1130A4081E88083E0910801F091090180E58083C9
S1130A50E0910801F091090189ED8083E09108019A
S1130A60F091090181E28083E0910801F09109018C
S1130A7080E28083E0910801F091090182E08083A3
S1130A80E0910801F09109018BED8083E091080168
S1130A90F091090180E38083E0910801F09109015C
S1130AA08DEA8083E0910801F09109011082E091C0
S1130AB00801F091090184EA8083E0910801F09132
S1130AC0090186EA8083E0910801F09109018FEA27
S1130AD08083E0910801F091090180EB8083E0912B
S1130AE00801F09109011082E0910801F0910901D7
S1130AF080E180830E94D4040E9485040895CF93EA
S1130B00C62F0E94AE04C093E801E0910801F09161
S1130B1009016C2F70E0769567956083E091080178
S1130B20F0910901605F608380E090E0CF910895C7
S1130B3085B7806885BF80B7806280BF08955D9B5C
S1130B40FECF8CB908955F9BFECF8CB190E00895E1
S1130B5090BD89B988E18AB98EE880BD63EA75E001
S1130B608FE995E00E94B50508950F931F93CF93E5
S1130B70DF93009731F46115710519F480E090E07A
S1130B803AC08B01EC016EE070E081E090E00E94DD
S1130B90F707FC01892B91F380E883830115110584
S1130BA071F01387028781E883838091EA01909131
S1130BB0EB01892B21F4F093EB01E093EA012097F8
S1130BC0C9F0D187C0878381826083838091EC01DF
S1130BD09091ED01892B71F4F093ED01E093EC0118
S1130BE08091EE019091EF01892B21F4F093EF01B4
S1130BF0E093EE01CF01DF91CF911F910F91089502
S1130C00A0E0B0E0E6E0F6E00C94FB09AE014B5F37
S1130C105F4FFA0161917191AF018091EC01909164
S1130C20ED010E941606E2E00C94170AABE0B0E076
S1130C30ECE1F6E00C94EB096C017B018A01FC0108
S1130C4017821682838181FFCCC1CE0101963C01BB
S1130C50F6019381F70193FD859193FF81917F01C3
S1130C60882309F4BAC1853239F493FD859193FF41
S1130C7081917F01853229F4B60190E00E945109E7
S1130C80E7CF912C212C312CFFE1F315D8F08B32D6
S1130C9079F038F4803279F08332A1F4232D206185
S1130CA01DC08D3261F0803369F4232D216016C09C
S1130CB0832D8260382EE32DE4603E2E2AC0F32D6E
S1130CC0F8601DC037FC2DC020ED280F2A3040F0FD
S1130CD08E32B9F436FC81C1232D2064322E19C022
S1130CE036FE06C08AE0989E200D1124922E11C073
S1130CF0EAE02E9E200D1124222EF32DF0623F2EC9
S1130D0008C08C3621F4832D8068382E02C08836C2
S1130D1041F4F70193FD859193FF81917F01811146
S1130D20B3CF982F9F7D9554933028F40C5F1F4FB9
S1130D309FE399830DC0833631F0833771F0833597
S1130D4009F059C021C0F801808189830E5F1F4FCB
S1130D5088248394912C530113C02801F2E04F0E90
S1130D60511CF801A080B18036FE03C0692D70E0EB
S1130D7002C06FEF7FEFC5010E9446094C0182015A
S1130D80F32DFF773F2E16C0280122E0420E511C9E
S1130D90F801A080B18036FE03C0692D70E002C066
S1130DA06FEF7FEFC5010E9434094C01F32DF06809
S1130DB03F2E820133FC1BC0822D90E088169906D9
S1130DC0B0F4B60180E290E00E9451092A94F4CF75
S1130DD0F50137FC859137FE81915F01B60190E002
S1130DE00E94510921102A9421E0821A9108811449
S1130DF0910471F7E8C0843611F0893641F5F801A1
S1130E0037FE07C060817181828193810C5F1F4F1F
S1130E1008C060817181072E000C880B990B0E5F4E
S1130E201F4FF32DFF763F2E97FF09C090958095B5
S1130E30709561957F4F8F4F9F4FF0683F2E2AE04A
S1130E4030E0A3010E948D09882E861845C085379D
S1130E5031F4232D2F7EB22E2AE030E025C0932DCD
S1130E60997FB92E8F36C1F018F4883579F0B5C062
S1130E70803719F0883721F0B0C0E92FE061BE2E29
S1130E80B4FE0DC0FB2DF460BF2E09C034FE0AC0B1
S1130E90292F2660B22E06C028E030E005C020E1EC
S1130EA030E002C020E132E0F801B7FE07C0608103
S1130EB07181828193810C5F1F4F06C060817181B3
S1130EC080E090E00E5F1F4FA3010E948D09882EE1
S1130ED08618FB2DFF773F2E36FE0DC0232D2E7F67
S1130EE0A22E891458F434FE0BC032FC09C0832DA1
S1130EF08E7EA82E05C0B82CA32C03C0B82C01C02C
S1130F00B92CA4FE0FC0FE01E80DF11D80818033D1
S1130F1021F49A2D997EA92E09C0A2FE06C0B3948D
S1130F20B39404C08A2D867809F0B394A3FC11C04D
S1130F30A0FE06C0B21488F4280C922C9B180EC094
S1130F40B21460F4B60180E290E00E945109B394B7
S1130F50F7CFB21418F42B1802C0982C212CA4FE3D
S1130F6010C0B60180E390E00E945109A2FE17C0B0
S1130F70A1FC03C088E790E002C088E590E0B601D8
S1130F800CC08A2D867859F0A1FE02C08BE201C004
S1130F9080E2A7FC8DE2B60190E00E945109891419
S1130FA038F4B60180E390E00E9451099A94F7CF97
S1130FB08A94F301E80DF11D8081B60190E00E944E
S1130FC051098110F5CF222009F442CEB60180E206
S1130FD090E00E9451092A94F6CFF6018681978108
S1130FE002C08FEF9FEF2B96E2E10C94070A0F9358
S1130FF01F93CF93DF93869F8001879F100D969F49
S1131000100D1124C8010E941308EC01009729F067
S1131010A80160E070E00E943F09CE01DF91CF910A
S11310201F910F9108950F931F93CF93DF938230F5
S1131030910510F482E090E0E091F201F091F30167
S113104020E030E0A0E0B0E0309719F14081518118
S11310500281138148175907C8F08417950769F46A
S1131060109731F012960C93129713961C9327C085
S11310700093F2011093F30122C02115310519F0F8
S11310804217530718F49A01BD01EF01DF01F8017B
S1131090DBCF21153105F9F0281B390B243031053C
S11310A080F48A819B816115710521F0FB01938392
S11310B0828304C09093F3018093F201FE0132967F
S11310C044C0FE01E20FF31F819391932250310932
S11310D0398328833AC02091F0013091F101232B08
S11310E041F420910201309103013093F1012093E6
S11310F0F00120910001309101012115310541F4E5
S11311002DB73EB74091040150910501241B350BC6
S1131110E091F001F091F101E217F307A0F42E1B26
S11311203F0B2817390778F0AC014E5F5F4F241747
S1131130350748F04E0F5F1F5093F1014093F001C3
S11311408193919302C0E0E0F0E0CF01DF91CF9171
S11311501F910F910895CF93DF93009709F481C0F5
S1131160FC01329713821282A091F201B091F30133
S1131170109781F420813181820F931F2091F00117
S11311803091F1012817390751F5F093F101E093FB
S1131190F00167C0ED0120E030E0CE17DF0740F436
S11311A04A815B819E0141155105F1F0EA01F5CFB9
S11311B0D383C28340815181840F951FC817D907F7
S11311C059F488819981840F951F029691838083B5
S11311D08A819B81938382832115310529F4F093BD
S11311E0F301E093F2013DC0E901FB83EA834991F5
S11311F05991C40FD51FEC17FD0761F480819181CB
S1131200840F951F0296E9019983888382819381D3
S11312109B838A83E0E0F0E012968D919C91139772
S1131220009719F0FD01DC01F7CF8D919C91119786
S11312309D012E5F3F4F820F931F2091F00130914B
S1131240F1012817390769F4309729F41092F30152
S11312501092F20102C013821282B093F101A093A2
S1131260F001DF91CF910895FC0105906150704029
S11312700110D8F7809590958E0F9F1F0895DC017B
S113128001C06D9341505040E0F70895FC01615056
S1131290704001900110D8F7809590958E0F9F1F94
S11312A008950F931F93CF93DF93FB01238121FDB7
S11312B003C08FEF9FEF2CC022FF16C046815781D9
S11312C0248135814217530744F4A081B1819D01E3
S11312D02F5F3F4F318320838C93268137812F5F8B
S11312E03F4F3783268314C08B01EC01FB0100843C
S11312F0F185E02D0995892BE1F6D80116968D919B
S11313009C911797019617969C938E931697CE01EE
S1131310DF91CF911F910F910895FA01AA272830E8
S113132051F1203181F1E8946F936E7F6E5F7F4FAE
S11313308F4F9F4FAF4FB1E03ED0B4E03CD0670F2A
S1131340781F891F9A1FA11D680F791F8A1F911D7D
S1131350A11D6A0F711D811D911DA11D20D009F4CD
S113136068943F912AE0269F11243019305D31930F
S1131370DEF6CF010895462F4770405D4193B3E0F8
S11313800FD0C9F7F6CF462F4F70405D4A3318F09F
S1131390495D31FD4052419302D0A9F7EACFB4E050
S11313A0A6959795879577956795BA95C9F7009708
S11313B06105710508959B01AC010A2E06945795A9
S11313C0479537952795BA95C9F7620F731F841F00
S11313D0951FA01D08952F923F924F925F926F9296
S11313E07F928F929F92AF92BF92CF92DF92EF92B1
S11313F0FF920F931F93CF93DF93CDB7DEB7CA1B32
S1131400DB0B0FB6F894DEBF0FBECDBF09942A885C
S1131410398848885F846E847D848C849B84AA8404
S1131420B984C884DF80EE80FD800C811B81AA8191
S1131430B981CE0FD11D0FB6F894DEBF0FBECDBF5C
S10B1440ED010895F894FFCFBB
S11314480000F4012000001200104D4350323531E1
S113145835206973204E4F542073657420746F20AF
S11314684C4F4F504241434B210A0D004D435032DB
S1131478353135206973204E4F5420696E20636FCF
S11314886E66696775726174696F6E206D6F6465E5
S1131498206166746572207265736574210A0D0093
S11314A857656C636F6D6520746F20746869730089
S11314B8666162756C6F75732067616D652062790A
S11314C80067726F757020313721203A29004D6109
S11314D8696E204D656E750053746172742047619E
S11314E86D6500203C2D2D005765206172652065CF
S11314F86E746572696E6720746865207375626DB1
S10F1508656E753A202573200A0D000062
S9030000FC
