:100000000C9438000C94EA010C9455000C945001A7
:100010000C9455000C9455000C9455000C9455000C
:100020000C9455000C9455000C9455000C945500FC
:100030000C9455000C9455000C9455000C945500EC
:100040000C9455000C9455000C9455000C945500DC
:100050000C9455000C9455000C9455000C945500CC
:100060000C9455000C9455000C9455000C945500BC
:1000700011241FBECFEFD4E0DEBFCDBF11E0A0E062
:10008000B1E0E8ECF0E102C005900D92A43BB107AD
:10009000D9F721E0A4EBB1E001C01D92A33CB20767
:1000A000E1F70E9496010C9462080C94000085B759
:1000B000806885BF80B7806280BF309880E090E024
:1000C0000895B89A83B7886083BF83B78F7B83BF57
:1000D00083B7806183BF83B7816083BF8AE081BFBC
:1000E00008958068E0E0F4E1808384EA8A95F1F77E
:1000F000808108950E946B02F894389A86B78160D7
:1001000086BF8BB780628BBF43E06FEF8BE20E94AC
:10011000490240E06FEF8CE20E94490230987894E7
:100120008EE00E941802807E803441F08AE091E0E7
:100130009F938F930E9440040F900F900895CF9249
:10014000DF92EF92FF921F93CF93DF936C01809128
:10015000B4018823C1F18CE291E09F938F930E94B8
:10016000400488E00E941802C82F82E60E9418020C
:10017000829586958770C82B8C2F90E0F60191832D
:10018000808385E60E9418028F70F60182830F90AB
:100190000F908823A9F07601F3E0EF0EF11C16E62C
:1001A000C0E0D0E0812F0E941802F70181937F0107
:1001B00021961F5FF601828190E0C817D90794F35A
:1001C0001092B40105C08FEF9FEFF60191838083F9
:1001D00040E06FEF8CE20E944902DF91CF911F91C6
:1001E000FF90EF90DF90CF90089580E30E94180277
:1001F00083FB882780F991E089270895CF92DF92C9
:10020000EF92FF921F93CF93DF936C010E94F50052
:10021000882391F1F6018081918196958795969535
:1002200087959695879561E40E942A02F601808160
:1002300062E48295880F807E0E942A0265E4F601BE
:1002400082810E942A02F60182818823A9F0760128
:10025000F3E0EF0EF11C16E4C0E0D0E0612FF701EF
:1002600081917F010E942A0221961F5FF6018281FF
:1002700090E0C817D90794F382E80E943E02DF910C
:10028000CF911F91FF90EF90DF90CF90089540E0C5
:1002900061E08CE20E94490281E08093B4010895FC
:1002A0001F920F920FB60F9211242F933F934F93EB
:1002B0005F936F937F938F939F93AF93BF93EF93CE
:1002C000FF938FEF9FE20197F1F700C000000E94BB
:1002D0004701FF91EF91BF91AF919F918F917F91D6
:1002E0006F915F914F913F912F910F900FBE0F90A3
:1002F0001F901895CF9380E090E00E947100C82F66
:1003000081E090E00E947100ECECF4E03197F1F7AD
:1003100000C00000C093B6018093B501CF9108954D
:1003200087B3817F87BB0E947A010895CF93DF93C3
:10033000CDB7DEB766970FB6F894DEBF0FBECDBF60
:100340000E9457008FE190E00E94E8030E94610044
:100350000E9490010E94D8030E947A000E940D031F
:100360000E94010360E080E00E94AC0381E090E025
:100370009A83898385E08B8388E48C8385E68D83EB
:100380008CE68E838F838FE688877E018FE0E80E70
:10039000F11C0CE511E087EA91E60197F1F700C046
:1003A0000000CE0101960E94FE00CE010C960E9434
:1003B0009F0087EA91E60197F1F700C00000FF92E5
:1003C000EF921F930F930E9440040F900F900F9095
:1003D0000F90E1CF1F920F920FB60F9211242F931F
:1003E0003F934F935F936F937F938F939F93AF93BD
:1003F000BF93EF93FF9380E791E09F938F930E94C9
:1004000040040F900F90FF91EF91BF91AF919F919A
:100410008F917F916F915F914F913F912F910F90AD
:100420000FBE0F901F901895C4980895C49A089510
:10043000CF93C82F0E94140283E00E94CD038C2F1B
:100440000E94CD030E94D103C82F0E9416028C2F58
:10045000CF910895CF93DF93C82FD62F0E94140217
:1004600082E00E94CD038D2F0E94CD038C2F0E942D
:10047000CD030E941602DF91CF910895CF93C82F2C
:100480000E9414028C2F0E94CD030E941602CF916D
:1004900008951F93CF93DF93182FD62FC42F0E9458
:1004A000140285E00E94CD03812F0E94CD038D2F81
:1004B0000E94CD038C2F0E94CD030E941602DF9173
:1004C000CF911F9108950E94140280EC0E94CD03E9
:1004D0000E94160208950E94C5030E94630260E60E
:1004E00080E60E942A0260E780E60E942A028EE0EF
:1004F0000E941802807E803851F080E891E09F933E
:100500008F930E9440040F900F9081E008952FE395
:100510008DE093E0215080409040E1F700C0000062
:100520006FE080E40E942A028EE00E941802807E22
:10053000803451F08AE091E09F938F930E944004B1
:100540000F900F9081E0089568E281E00E942A02F6
:1005500069E285EB0E942A026AE283E40E942A0291
:1005600080E008951092B8011092B701E09108015F
:10057000F091090181E28083E0910801F091090185
:100580001082E0910801F09109018FE78083E091EA
:100590000801F091090182E28083E0910801F09165
:1005A00009011082E0910801F091090187E0808340
:1005B00080E090E008958093B801E0910801F09107
:1005C00009011082E0910801F091090190E1908306
:1005D000E0910801F09109018055808380E090E06E
:1005E00008950E94DB0280E890E0E0910601F0911E
:1005F000070110820197C9F70E94B20280E090E0E3
:100600000895CF93C0E08C2F0E94F102CF5FC830D5
:10061000D1F780E090E0CF91089585B7806885BFDD
:1006200080B7806280BFE0910801F09109018EEAF5
:100630008083E0910801F091090181EA8083E091D3
:100640000801F09109018AED8083E0910801F091A1
:10065000090182E18083E0910801F091090188ECB1
:100660008083E0910801F091090188EA8083E0919C
:100670000801F09109018FE38083E0910801F09176
:10068000090185ED8083E0910801F091090180E87E
:100690008083E0910801F091090181E88083E09175
:1006A0000801F091090180E58083E0910801F09153
:1006B000090189ED8083E0910801F091090181E24F
:1006C0008083E0910801F091090180E28083E0914C
:1006D0000801F091090182E08083E0910801F09126
:1006E00009018BED8083E0910801F091090180E31D
:1006F0008083E0910801F09109018DEA8083E09107
:100700000801F09109011082E0910801F0910901BE
:1007100084EA8083E0910801F091090186EA8083F0
:10072000E0910801F09109018FEA8083E0910801CE
:10073000F091090180EB8083E0910801F0910901BB
:100740001082E0910801F091090180E180830E940C
:1007500001030E94B2020895CF93C62F0E94DB02CC
:10076000C093B701E0910801F09109016C2F70E08E
:10077000769567956083E0910801F0910901605FCB
:10078000608380E090E0CF91089587B3806B87BB52
:10079000BE988DB181658DB908958FB9779BFECFD5
:1007A000089580E00E94CD03779BFECF8FB108951E
:1007B00085B7806885BF80B7806280BF08955D9BE4
:1007C000FECF8CB908955F9BFECF8CB190E0089569
:1007D00090BD89B988E18AB98EE880BD63EE73E087
:1007E0008FED93E00E94F50308950F931F93CF932D
:1007F000DF93009731F46115710519F480E090E002
:100800003AC08B01EC016EE070E081E090E00E9464
:100810003706FC01892B91F380E8838301151105CC
:1008200071F01387028781E883838091B9019091E9
:10083000BA01892B21F4F093BA01E093B901209712
:10084000C9F0D187C0878381826083838091BB0197
:100850009091BC01892B71F4F093BC01E093BB0132
:100860008091BD019091BE01892B21F4F093BE01CE
:10087000E093BD01CF01DF91CF911F910F910895BA
:10088000A0E0B0E0E6E4F4E00C943B08AE014B5F7E
:100890005F4FFA0161917191AF018091BB0190911D
:1008A000BC010E945604E2E00C945708ABE0B0E0B3
:1008B000ECE5F4E00C942B086C017B018A01FC014F
:1008C00017821682838181FFCCC1CE0101963C0143
:1008D000F6019381F70193FD859193FF81917F014B
:1008E000882309F4BAC1853239F493FD859193FFC9
:1008F00081917F01853229F4B60190E00E94910731
:10090000E7CF912C212C312CFFE1F315D8F08B325D
:1009100079F038F4803279F08332A1F4232D20610C
:100920001DC08D3261F0803369F4232D216016C023
:10093000832D8260382EE32DE4603E2E2AC0F32DF5
:10094000F8601DC037FC2DC020ED280F2A3040F084
:100950008E32B9F436FC81C1232D2064322E19C0A9
:1009600036FE06C08AE0989E200D1124922E11C0FA
:10097000EAE02E9E200D1124222EF32DF0623F2E50
:1009800008C08C3621F4832D8068382E02C088364A
:1009900041F4F70193FD859193FF81917F018111CE
:1009A000B3CF982F9F7D9554933028F40C5F1F4F41
:1009B0009FE399830DC0833631F0833771F083351F
:1009C00009F059C021C0F801808189830E5F1F4F53
:1009D00088248394912C530113C02801F2E04F0E18
:1009E000511CF801A080B18036FE03C0692D70E073
:1009F00002C06FEF7FEFC5010E9486074C018201A4
:100A0000F32DFF773F2E16C0280122E0420E511C25
:100A1000F801A080B18036FE03C0692D70E002C0ED
:100A20006FEF7FEFC5010E9474074C01F32DF06852
:100A30003F2E820133FC1BC0822D90E08816990660
:100A4000B0F4B60180E290E00E9491072A94F4CFBE
:100A5000F50137FC859137FE81915F01B60190E089
:100A60000E94910721102A9421E0821A9108811492
:100A7000910471F7E8C0843611F0893641F5F80128
:100A800037FE07C060817181828193810C5F1F4FA7
:100A900008C060817181072E000C880B990B0E5FD6
:100AA0001F4FF32DFF763F2E97FF09C0909580953D
:100AB000709561957F4F8F4F9F4FF0683F2E2AE0D2
:100AC00030E0A3010E94CD07882E861845C08537E7
:100AD00031F4232D2F7EB22E2AE030E025C0932D55
:100AE000997FB92E8F36C1F018F4883579F0B5C0EA
:100AF000803719F0883721F0B0C0E92FE061BE2EB1
:100B0000B4FE0DC0FB2DF460BF2E09C034FE0AC038
:100B1000292F2660B22E06C028E030E005C020E173
:100B200030E002C020E132E0F801B7FE07C060818A
:100B30007181828193810C5F1F4F06C0608171813A
:100B400080E090E00E5F1F4FA3010E94CD07882E2A
:100B50008618FB2DFF773F2E36FE0DC0232D2E7FEE
:100B6000A22E891458F434FE0BC032FC09C0832D28
:100B70008E7EA82E05C0B82CA32C03C0B82C01C0B3
:100B8000B92CA4FE0FC0FE01E80DF11D8081803359
:100B900021F49A2D997EA92E09C0A2FE06C0B39415
:100BA000B39404C08A2D867809F0B394A3FC11C0D5
:100BB000A0FE06C0B21488F4280C922C9B180EC01C
:100BC000B21460F4B60180E290E00E949107B39401
:100BD000F7CFB21418F42B1802C0982C212CA4FEC5
:100BE00010C0B60180E390E00E949107A2FE17C0FA
:100BF000A1FC03C088E790E002C088E590E0B60160
:100C00000CC08A2D867859F0A1FE02C08BE201C08B
:100C100080E2A7FC8DE2B60190E00E949107891462
:100C200038F4B60180E390E00E9491079A94F7CFE0
:100C30008A94F301E80DF11D8081B60190E00E94D5
:100C400091078110F5CF222009F442CEB60180E24F
:100C500090E00E9491072A94F6CFF6018681978151
:100C600002C08FEF9FEF2B96E2E10C9447080F93A1
:100C70001F93CF93DF93869F8001879F100D969FD0
:100C8000100D1124C8010E945306EC01009729F0B1
:100C9000A80160E070E00E947F07CE01DF91CF9154
:100CA0001F910F9108950F931F93CF93DF9382307D
:100CB000910510F482E090E0E091C101F091C20151
:100CC00020E030E0A0E0B0E0309719F140815181A0
:100CD0000281138148175907C8F08417950769F4F2
:100CE000109731F012960C93129713961C9327C00D
:100CF0000093C1011093C20122C02115310519F0E2
:100D00004217530718F49A01BD01EF01DF01F80102
:100D1000DBCF21153105F9F0281B390B24303105C3
:100D200080F48A819B816115710521F0FB01938319
:100D3000828304C09093C2018093C101FE01329668
:100D400044C0FE01E20FF31F8193919322503109B9
:100D5000398328833AC02091BF013091C001232BF1
:100D600041F420910201309103013093C00120939E
:100D7000BF0120910001309101012115310541F49D
:100D80002DB73EB74091040150910501241B350B4E
:100D9000E091BF01F091C001E217F307A0F42E1B10
:100DA0003F0B2817390778F0AC014E5F5F4F2417CF
:100DB000350748F04E0F5F1F5093C0014093BF01AD
:100DC0008193919302C0E0E0F0E0CF01DF91CF91F9
:100DD0001F910F910895CF93DF93009709F481C07D
:100DE000FC01329713821282A091C101B091C2011D
:100DF000109781F420813181820F931F2091BF01D0
:100E00003091C0012817390751F5F093C001E093E4
:100E1000BF0167C0ED0120E030E0CE17DF0740F4EE
:100E20004A815B819E0141155105F1F0EA01F5CF40
:100E3000D383C28340815181840F951FC817D9077E
:100E400059F488819981840F951F0296918380833C
:100E50008A819B81938382832115310529F4F09344
:100E6000C201E093C1013DC0E901FB83EA834991DE
:100E70005991C40FD51FEC17FD0761F48081918152
:100E8000840F951F0296E90199838883828193815B
:100E90009B838A83E0E0F0E012968D919C911397FA
:100EA000009719F0FD01DC01F7CF8D919C9111970E
:100EB0009D012E5F3F4F820F931F2091BF01309104
:100EC000C0012817390769F4309729F41092C2013C
:100ED0001092C10102C013821282B093C001A0938C
:100EE000BF01DF91CF910895FC01059061507040E2
:100EF0000110D8F7809590958E0F9F1F0895DC0103
:100F000001C06D9341505040E0F70895FC016150DD
:100F1000704001900110D8F7809590958E0F9F1F1B
:100F200008950F931F93CF93DF93FB01238121FD3E
:100F300003C08FEF9FEF2CC022FF16C04681578160
:100F4000248135814217530744F4A081B1819D016A
:100F50002F5F3F4F318320838C93268137812F5F12
:100F60003F4F3783268314C08B01EC01FB010084C3
:100F7000F185E02D0995892BE1F6D80116968D9122
:100F80009C911797019617969C938E931697CE0176
:100F9000DF91CF911F910F910895FA01AA27283070
:100FA00051F1203181F1E8946F936E7F6E5F7F4F36
:100FB0008F4F9F4FAF4FB1E03ED0B4E03CD0670FB2
:100FC000781F891F9A1FA11D680F791F8A1F911D05
:100FD000A11D6A0F711D811D911DA11D20D009F455
:100FE00068943F912AE0269F11243019305D319397
:100FF000DEF6CF010895462F4770405D4193B3E080
:101000000FD0C9F7F6CF462F4F70405D4A3318F026
:10101000495D31FD4052419302D0A9F7EACFB4E0D7
:10102000A6959795879577956795BA95C9F700978F
:101030006105710508959B01AC010A2E0694579530
:10104000479537952795BA95C9F7620F731F841F87
:10105000951FA01D08952F923F924F925F926F921D
:101060007F928F929F92AF92BF92CF92DF92EF9238
:10107000FF920F931F93CF93DF93CDB7DEB7CA1BB9
:10108000DB0B0FB6F894DEBF0FBECDBF09942A88E4
:10109000398848885F846E847D848C849B84AA848C
:1010A000B984C884DF80EE80FD800C811B81AA8119
:1010B000B981CE0FD11D0FB6F894DEBF0FBECDBFE4
:0810C000ED010895F894FFCF43
:1010C8000000C3012000001200104D43503235319A
:1010D80035206973204E4F542073657420746F2037
:1010E8004C4F4F504241434B210A0D004567206544
:1010F8007220696E6E692063616E20696E74657214
:101108007570742C20686572207661206461206B8C
:101118006F73656C6567200A0D0A0D004F757420A2
:1011280066726F6D205350493A202573200A0D00CE
:1011380043616E20696E746572727570740A0D0071
:101148004D435032353135206973204E4F54206954
:101158006E20636F6E66696775726174696F6E2061
:101168006D6F64652061667465722072657365745D
:04117800210A0D003B
:00000001FF
