:100000000C9438000C9455000C9455000C94FA0094
:100010000C9455000C9455000C9455000C9455000C
:100020000C9455000C9455000C9455000C945500FC
:100030000C9455000C9455000C9455000C945500EC
:100040000C9455000C9455000C9455000C945500DC
:100050000C9455000C9455000C9455000C945500CC
:100060000C9455000C9455000C9455000C945500BC
:1000700011241FBECFEFD4E0DEBFCDBF11E0A0E062
:10008000B1E0E4E7F1E102C005900D92A639B107B5
:10009000D9F721E0A6E9B1E001C01D92A53AB20767
:1000A000E1F70E94DD010C94B8080C94000085B7BC
:1000B000806885BF80B7806280BF309880E090E024
:1000C0000895B89A83B7886083BF83B78F7B83BF57
:1000D00083B7806183BF83B7816083BF8AE081BFBC
:1000E00008958068E0E0F4E1808384EA8A95F1F77E
:1000F000808108950E948902F894389A86B78160B9
:1001000086BF8BB780628BBF43E06FEF8BE20E94AC
:10011000670240E06FEF8CE20E94670230987894AB
:100120008EE00E943602807E803441F08AE091E0C9
:100130009F938F930E9496040F900F90089580E3F1
:100140000E94360283FB882780F991E08927089571
:10015000CF92DF92EF92FF921F93CF93DF936C01C8
:100160000E949F00882391F1F601808191819695EC
:100170008795969587959695879561E40E944802A4
:10018000F601808162E48295880F807E0E94480299
:1001900065E4F60182810E944802F601828188238B
:1001A000A9F07601F3E0EF0EF11C16E4C0E0D0E018
:1001B000612FF70181917F010E94480221961F5F04
:1001C000F601828190E0C817D90794F382E80E9473
:1001D0005C02DF91CF911F91FF90EF90DF90CF9065
:1001E000089540E061E08CE20E94670281E0809324
:1001F000960108951F920F920FB60F9211242F931C
:100200003F934F935F936F937F938F939F93AF939E
:10021000BF93EF93FF938FEF9FE20197F1F700C039
:1002200000000E94F100FF91EF91BF91AF919F916B
:100230008F917F916F915F914F913F912F910F908F
:100240000FBE0F901F901895892B29F486B38695C1
:10025000817090E0089580E090E00895CF9380E071
:1002600090E00E947100C82F81E090E00E94710030
:10027000382F209198012C17A0F4E22FF0E04C2F9A
:1002800050E04E1B5F0B64E6649FC001659F900DBC
:1002900011246FEF70E06E1B7F0B0E942304462F2A
:1002A00001C040E0C21778F4622F70E04C2F50E09C
:1002B000461B570BE4E6E49FC001E59F900D112417
:1002C0000E942304462FC21301C040E020919701F1
:1002D0002317A0F4E22FF0E0632F70E06E1B7F0B7A
:1002E00054E6569FC001579F900D11246FEF70E0A8
:1002F0006E1B7F0B0E942304762F01C070E0321723
:1003000078F4622F70E0E32FF0E0E61BF70B54E681
:100310005E9FC0015F9F900D11240E942304762FE1
:10032000321301C070E0642F80E0CF9108950E94E5
:100330002E01262F972F64300CF082E52D3F0CF410
:100340008CE494300CF085E59D3F0CF484E4262F7A
:10035000062E000C330B33231CF431952195310903
:10036000243031056CF4272F072E000C330B332378
:100370001CF4319521953109243031050CF48EE4BB
:100380000895CF9380E090E00E947100C82F81E033
:1003900090E00E947100ECECF4E03197F1F700C0BE
:1003A0000000C093980180939701CF91089587B37F
:1003B000817F87BB0E94C1010895CF93DF93CDB7A2
:1003C000DEB72B970FB6F894DEBF0FBECDBF0E94ED
:1003D00057008FE190E00E9416040E9461000E9485
:1003E000D7010E9406040E947A000E943B030E94EB
:1003F0002F0360E080E00E94DA031A82198282E013
:100400008B830E942E010E94970180E090E00E9461
:10041000240180E090E00E94240181E090E00E94AD
:10042000240181E090E00E94240182E090E00E949B
:10043000240182E090E00E94240187EA91E601977E
:10044000F1F700C0000080E090E00E9471008C8312
:1004500081E090E00E9471008D83CE0101960E94A0
:10046000A800CFCFC4980895C49A0895CF93C82FF9
:100470000E94320283E00E94FB038C2F0E94FB0348
:100480000E94FF03C82F0E9434028C2FCF91089541
:10049000CF93DF93C82FD62F0E94320282E00E94B2
:1004A000FB038D2F0E94FB038C2F0E94FB030E94F5
:1004B0003402DF91CF910895CF93C82F0E9432026A
:1004C0008C2F0E94FB030E943402CF9108951F934A
:1004D000CF93DF93182FD62FC42F0E94320285E0CE
:1004E0000E94FB03812F0E94FB038D2F0E94FB03C0
:1004F0008C2F0E94FB030E943402DF91CF911F9149
:1005000008950E94320280EC0E94FB030E94340294
:100510000895CF930E94F3030E94810260E680E673
:100520000E94480260E780E60E9448028EE00E9436
:100530003602C82F68E281E00E94480269E285EB3A
:100540000E9448026AE283E40E944802C07EC038EA
:1005500051F08CE591E09F938F930E9496040F9049
:100560000F9081E02BC02FE38DE093E0215080407D
:100570009040E1F700C000006FE080E00E94480278
:100580008EE00E943602C82F1F928F9380E991E07F
:100590009F938F930E949604C07E0F900F900F90B0
:1005A0000F90C03451F08AE091E09F938F930E94A6
:1005B00096040F900F9081E001C080E0CF910895E4
:1005C00010929A0110929901E0910801F0910901AD
:1005D00081E28083E0910801F09109011082E091AD
:1005E0000801F09109018FE78083E0910801F09103
:1005F000090182E28083E0910801F09109011082F3
:10060000E0910801F091090187E0808380E090E0AB
:10061000089580939A01E0910801F09109011082F8
:10062000E0910801F091090190E19083E0910801C7
:10063000F09109018055808380E090E008950E9448
:10064000090380E890E0E0910601F0910701108233
:100650000197C9F70E94E00280E090E00895CF93EF
:10066000C0E08C2F0E941F03CF5FC830D1F780E01D
:1006700090E0CF91089585B7806885BF80B780628C
:1006800080BFE0910801F09109018EEA8083E0913A
:100690000801F091090181EA8083E0910801F0915D
:1006A00009018AED8083E0910801F091090182E15E
:1006B0008083E0910801F091090188EC8083E0914A
:1006C0000801F091090188EA8083E0910801F09126
:1006D00009018FE38083E0910801F091090185ED24
:1006E0008083E0910801F091090180E88083E09126
:1006F0000801F091090181E88083E0910801F091FF
:10070000090180E58083E0910801F091090189EDFC
:100710008083E0910801F091090181E28083E091FA
:100720000801F091090180E28083E0910801F091D5
:10073000090182E08083E0910801F09109018BEDCD
:100740008083E0910801F091090180E38083E091CA
:100750000801F09109018DEA8083E0910801F09190
:1007600009011082E0910801F091090184EA808377
:10077000E0910801F091090186EA8083E091080187
:10078000F09109018FEA8083E0910801F09109015D
:1007900080EB8083E0910801F09109011082E091E3
:1007A0000801F091090180E180830E942F030E94DB
:1007B000E0020895CF93C62F0E940903C0939901C8
:1007C000E0910801F09109016C2F70E07695679532
:1007D0006083E0910801F0910901605F608380E02F
:1007E00090E0CF91089587B3806B87BBBE988DB1A1
:1007F00081658DB908958FB9779BFECF089580E00C
:100800000E94FB03779BFECF8FB1089585B7806868
:1008100085BF80B7806280BF08955D9BFECF8CB995
:1008200008955F9BFECF8CB190E0089590BD89B98B
:1008300088E18AB98EE880BD61E174E08DE094E0E2
:100840000E944B04089597FB072E16F4009407D0DE
:1008500077FD09D00E94370407FC05D03EF490953F
:1008600081959F4F0895709561957F4F0895AA1BBC
:10087000BB1B51E107C0AA1FBB1FA617B70710F08B
:10088000A61BB70B881F991F5A95A9F780959095BD
:10089000BC01CD0108950F931F93CF93DF93009771
:1008A00031F46115710519F480E090E03AC08B01D4
:1008B000EC016EE070E081E090E00E948D06FC01AA
:1008C000892B91F380E883830115110571F013875B
:1008D000028781E8838380919B0190919C01892B01
:1008E00021F4F0939C01E0939B012097C9F0D187FC
:1008F000C08783818260838380919D0190919E0156
:10090000892B71F4F0939E01E0939D0180919F01EA
:100910009091A001892B21F4F093A001E0939F0115
:10092000CF01DF91CF911F910F910895A0E0B0E02A
:10093000ECE9F4E00C949108AE014B5F5F4FFA01D3
:1009400061917191AF0180919D0190919E010E94F2
:10095000AC04E2E00C94AD08ABE0B0E0E2EBF4E014
:100960000C9481086C017B018A01FC0117821682BC
:10097000838181FFCCC1CE0101963C01F6019381B8
:10098000F70193FD859193FF81917F01882309F4FD
:10099000BAC1853239F493FD859193FF81917F012E
:1009A000853229F4B60190E00E94E707E7CF912C49
:1009B000212C312CFFE1F315D8F08B3279F038F48B
:1009C000803279F08332A1F4232D20611DC08D3255
:1009D00061F0803369F4232D216016C0832D82607D
:1009E000382EE32DE4603E2E2AC0F32DF8601DC0A2
:1009F00037FC2DC020ED280F2A3040F08E32B9F49C
:100A000036FC81C1232D2064322E19C036FE06C06B
:100A10008AE0989E200D1124922E11C0EAE02E9EAD
:100A2000200D1124222EF32DF0623F2E08C08C36AB
:100A300021F4832D8068382E02C0883641F4F701F6
:100A400093FD859193FF81917F018111B3CF982F01
:100A50009F7D9554933028F40C5F1F4F9FE399833B
:100A60000DC0833631F0833771F0833509F059C0FA
:100A700021C0F801808189830E5F1F4F88248394F1
:100A8000912C530113C02801F2E04F0E511CF801C4
:100A9000A080B18036FE03C0692D70E002C06FEF08
:100AA0007FEFC5010E94DC074C018201F32DFF7727
:100AB0003F2E16C0280122E0420E511CF801A080F2
:100AC000B18036FE03C0692D70E002C06FEF7FEF8A
:100AD000C5010E94CA074C01F32DF0683F2E820128
:100AE00033FC1BC0822D90E088169906B0F4B60145
:100AF00080E290E00E94E7072A94F4CFF50137FCEA
:100B0000859137FE81915F01B60190E00E94E70771
:100B100021102A9421E0821A91088114910471F71E
:100B2000E8C0843611F0893641F5F80137FE07C078
:100B300060817181828193810C5F1F4F08C0608149
:100B40007181072E000C880B990B0E5F1F4FF32D40
:100B5000FF763F2E97FF09C090958095709561951F
:100B60007F4F8F4F9F4FF0683F2E2AE030E0A30168
:100B70000E942308882E861845C0853731F4232D1E
:100B80002F7EB22E2AE030E025C0932D997FB92E1A
:100B90008F36C1F018F4883579F0B5C0803719F078
:100BA000883721F0B0C0E92FE061BE2EB4FE0DC041
:100BB000FB2DF460BF2E09C034FE0AC0292F266029
:100BC000B22E06C028E030E005C020E130E002C0CF
:100BD00020E132E0F801B7FE07C0608171818281B7
:100BE00093810C5F1F4F06C06081718180E090E0AF
:100BF0000E5F1F4FA3010E942308882E8618FB2D2D
:100C0000FF773F2E36FE0DC0232D2E7FA22E891496
:100C100058F434FE0BC032FC09C0832D8E7EA82E02
:100C200005C0B82CA32C03C0B82C01C0B92CA4FE5D
:100C30000FC0FE01E80DF11D8081803321F49A2D53
:100C4000997EA92E09C0A2FE06C0B394B39404C035
:100C50008A2D867809F0B394A3FC11C0A0FE06C0CB
:100C6000B21488F4280C922C9B180EC0B21460F4B5
:100C7000B60180E290E00E94E707B394F7CFB21488
:100C800018F42B1802C0982C212CA4FE10C0B60119
:100C900080E390E00E94E707A2FE17C0A1FC03C01A
:100CA00088E790E002C088E590E0B6010CC08A2D8C
:100CB000867859F0A1FE02C08BE201C080E2A7FC59
:100CC0008DE2B60190E00E94E707891438F4B6017E
:100CD00080E390E00E94E7079A94F7CF8A94F301AB
:100CE000E80DF11D8081B60190E00E94E7078110B8
:100CF000F5CF222009F442CEB60180E290E00E94B6
:100D0000E7072A94F6CFF6018681978102C08FEF1C
:100D10009FEF2B96E2E10C949D080F931F93CF93C6
:100D2000DF93869F8001879F100D969F100D1124E1
:100D3000C8010E94A906EC01009729F0A80160E013
:100D400070E00E94D507CE01DF91CF911F910F91E6
:100D500008950F931F93CF93DF938230910510F482
:100D600082E090E0E091A301F091A40120E030E066
:100D7000A0E0B0E0309719F14081518102811381E8
:100D800048175907C8F08417950769F4109731F090
:100D900012960C93129713961C9327C00093A301ED
:100DA0001093A40122C02115310519F042175307F1
:100DB00018F49A01BD01EF01DF01F801DBCF211525
:100DC0003105F9F0281B390B2430310580F48A8174
:100DD0009B816115710521F0FB019383828304C01F
:100DE0009093A4018093A301FE01329644C0FE01BA
:100DF000E20FF31F819391932250310939832883A5
:100E00003AC02091A1013091A201232B41F42091FD
:100E10000201309103013093A2012093A10120919E
:100E20000001309101012115310541F42DB73EB784
:100E30004091040150910501241B350BE091A10163
:100E4000F091A201E217F307A0F42E1B3F0B281725
:100E5000390778F0AC014E5F5F4F2417350748F033
:100E60004E0F5F1F5093A2014093A1018193919374
:100E700002C0E0E0F0E0CF01DF91CF911F910F9130
:100E80000895CF93DF93009709F481C0FC01329756
:100E900013821282A091A301B091A401109781F452
:100EA00020813181820F931F2091A1013091A201F5
:100EB0002817390751F5F093A201E093A10167C00B
:100EC000ED0120E030E0CE17DF0740F44A815B817E
:100ED0009E0141155105F1F0EA01F5CFD383C2839C
:100EE00040815181840F951FC817D90759F4888113
:100EF0009981840F951F0296918380838A819B81BB
:100F0000938382832115310529F4F093A401E093A2
:100F1000A3013DC0E901FB83EA8349915991C40FC4
:100F2000D51FEC17FD0761F480819181840F951F17
:100F30000296E90199838883828193819B838A83C6
:100F4000E0E0F0E012968D919C911397009719F0D4
:100F5000FD01DC01F7CF8D919C9111979D012E5FD2
:100F60003F4F820F931F2091A1013091A2012817BA
:100F7000390769F4309729F41092A4011092A30163
:100F800002C013821282B093A201A093A101DF914B
:100F9000CF910895FC010590615070400110D8F781
:100FA000809590958E0F9F1F0895DC0101C06D9371
:100FB00041505040E0F70895FC01615070400190AD
:100FC0000110D8F7809590958E0F9F1F08950F936D
:100FD0001F93CF93DF93FB01238121FD03C08FEF8C
:100FE0009FEF2CC022FF16C0468157812481358196
:100FF0004217530744F4A081B1819D012F5F3F4FF9
:10100000318320838C93268137812F5F3F4F378335
:10101000268314C08B01EC01FB010084F185E02DD7
:101020000995892BE1F6D80116968D919C91179719
:10103000019617969C938E931697CE01DF91CF91D0
:101040001F910F910895FA01AA27283051F12031FC
:1010500081F1E8946F936E7F6E5F7F4F8F4F9F4F4C
:10106000AF4FB1E03ED0B4E03CD0670F781F891F8E
:101070009A1FA11D680F791F8A1F911DA11D6A0F5C
:10108000711D811D911DA11D20D009F468943F910F
:101090002AE0269F11243019305D3193DEF6CF010E
:1010A0000895462F4770405D4193B3E00FD0C9F7D4
:1010B000F6CF462F4F70405D4A3318F0495D31FD41
:1010C0004052419302D0A9F7EACFB4E0A695979594
:1010D000879577956795BA95C9F70097610571056A
:1010E00008959B01AC010A2E0694579547953795B4
:1010F0002795BA95C9F7620F731F841F951FA01D0E
:1011000008952F923F924F925F926F927F928F92AB
:101110009F92AF92BF92CF92DF92EF92FF920F9386
:101120001F93CF93DF93CDB7DEB7CA1BDB0B0FB690
:10113000F894DEBF0FBECDBF09942A88398848884D
:101140005F846E847D848C849B84AA84B984C884E3
:10115000DF80EE80FD800C811B81AA81B981CE0FDA
:10116000D11D0FB6F894DEBF0FBECDBFED010895BF
:04117000F894FFCF21
:101174000000A5012000001200104D43503235310B
:1011840035206973204E4F542073657420746F208A
:101194004C4F4F504241434B210A0D004567206597
:1011A4007220696E6E692063616E20696E74657267
:1011B4007570742C20686572207661206461206BE0
:1011C4006F73656C6567200A0D0A0D004D4350323C
:1011D400353135206973204E4F5420696E20636F7A
:1011E4006E66696775726174696F6E206D6F646590
:1011F400206166746572207265736574210A0D003E
:061204002564200A0D0024
:00000001FF
