S01700004763634170706C69636174696F6E312E737265635B
S11300000C9438000C9455000C9455000C94FA0090
S11300100C9455000C9455000C9455000C94550008
S11300200C9455000C9455000C9455000C945500F8
S11300300C9455000C9455000C9455000C945500E8
S11300400C9455000C9455000C9455000C945500D8
S11300500C9455000C9455000C9455000C945500C8
S11300600C9455000C9455000C9455000C945500B8
S113007011241FBECFEFD4E0DEBFCDBF11E0A0E05E
S1130080B1E0E0E9FFE002C005900D92A239B107AA
S1130090D9F721E0A2E9B1E001C01D92AF39B2075E
S11300A0E1F70E94F1010C94C6070C94000085B797
S11300B0806885BF80B7806280BF309880E090E020
S11300C00895B89A83B7886083BF83B78F7B83BF53
S11300D083B7806183BF83B7816083BF8AE081BFB8
S11300E008958068E0E0F4E1808384EA8A95F1F77A
S11300F0808108950E94AA02F894389A86B7816094
S113010086BF8BB780628BBF43E06FEF8BE20E94A8
S1130110880240E06FEF8CE20E9488023098789465
S11301208EE00E945702807E803441F086E091E0A8
S11301309F938F930E94A4030F900F90089580E3E0
S11301400E94570283FB882780F991E0892708954C
S1130150CF92DF92EF92FF921F93CF93DF936C01C4
S11301600E949F00882391F1F601808191819695E8
S11301708795969587959695879561E40E9469027F
S1130180F601808162E48295880F807E0E94690274
S113019065E4F60182810E946902F6018281882366
S11301A0A9F07601F3E0EF0EF11C16E4C0E0D0E014
S11301B0612FF70181917F010E94690221961F5FDF
S11301C0F601828190E0C817D90794F382E80E946F
S11301D07D02DF91CF911F91FF90EF90DF90CF9040
S11301E0089540E061E08CE20E94880281E08093FF
S11301F0920108951F920F920FB60F9211242F931C
S11302003F934F935F936F937F938F939F93AF939A
S1130210BF93EF93FF938FEF9FE20197F1F700C035
S113022000000E94F100FF91EF91BF91AF919F9167
S11302308F917F916F915F914F913F912F910F908B
S11302400FBE0F901F9018958130910539F08230C0
S1130250910531F0892B69F4B1990EC0B2990FC0A0
S113026086B386958695869591E08927817090E07E
S1130270089580E090E0089581E090E0089581E0A1
S113028090E00895CF9380E090E00E947100C82F21
S113029081E090E00E947100382F209194012C1786
S11302A0A0F4E22FF0E04C2F50E04E1B5F0B64E60D
S11302B0649FC001659F900D11246FEF70E06E1B69
S11302C07F0B0E943103462F01C040E0C21778F42F
S11302D0622F70E04C2F50E0461B570BE4E6E49F7E
S11302E0C001E59F900D11240E943103462FC213D3
S11302F001C040E0209193012317A0F4E22FF0E025
S1130300632F70E06E1B7F0B54E6569FC001579F0E
S1130310900D11246FEF70E06E1B7F0B0E94310370
S1130320762F01C070E0321778F4622F70E0E32F6B
S1130330F0E0E61BF70B54E65E9FC0015F9F900D53
S113034011240E943103762F321301C070E0642F10
S113035080E0CF9108950E944201262F972F6430A8
S11303600CF082E52D3F0CF48CE494300CF085E520
S11303709D3F0CF484E4262F062E000C330B33230C
S11303801CF4319521953109243031056CF4272F63
S1130390072E000C330B33231CF4319521953109BE
S11303A0243031050CF48EE40895CF9380E090E07E
S11303B00E947100C82F81E090E00E947100ECEC73
S11303C0F4E03197F1F700C00000C09394018093EA
S11303D09301CF91089587B3817F87BB0E94D50194
S11303E00895CF93DF93CDB7DEB72B970FB6F8946C
S11303F0DEBF0FBECDBF0E9457008FE190E00E9488
S113040024030E9461000E94EB010E9414030E94D5
S11304107A001A82198285E08B8300E00E944201EF
S11304200E94AB0180E090E00E94240180E090E013
S11304300E94240181E090E00E94240181E090E088
S11304400E94240182E090E00E9424017C0182E069
S113045090E00E942401892B29F011E0EF2819F47F
S113046010E001C0102F87EA91E60197F1F700C070
S1130470000080E090E00E9471008C8381E090E0B5
S11304800E9471008D8383E090E00E9471008E834E
S113049082E090E00E9471008F831887CE0101965C
S11304A00E94A800BBCFC4980895C49A0895CF931E
S11304B0C82F0E94530283E00E9409038C2F0E94DC
S11304C009030E940D03C82F0E9455028C2FCF915F
S11304D00895CF93DF93C82FD62F0E94530282E052
S11304E00E9409038D2F0E9409038C2F0E94090387
S11304F00E945502DF91CF910895CF93C82F0E9497
S113050053028C2F0E9409030E945502CF91089533
S11305101F93CF93DF93182FD62FC42F0E9453021B
S113052085E00E940903812F0E9409038D2F0E94F8
S113053009038C2F0E9409030E945502DF91CF9179
S11305401F9108950E94530280EC0E9409030E94A7
S113055055020895CF930E9401030E94A20260E60F
S113056080E60E94690260E780E60E9469028EE0EC
S11305700E945702C82F68E281E00E94690269E282
S113058085EB0E9469026AE283E40E946902C07EEC
S1130590C03851F088E591E09F938F930E94A403A3
S11305A00F900F9081E02BC02FE38DE093E021505A
S11305B080409040E1F700C000006FE080E00E94BE
S11305C069028EE00E945702C82F1F928F938CE815
S11305D091E09F938F930E94A403C07E0F900F908D
S11305E00F900F90C03451F086E091E09F938F9369
S11305F00E94A4030F900F9081E001C080E0CF918E
S1130600089587B3806B87BBBE988DB181658DB922
S113061008958FB9779BFECF089580E00E94090367
S1130620779BFECF8FB1089585B7806885BF80B76B
S1130630806280BF08955D9BFECF8CB908955F9B57
S1130640FECF8CB190E0089590BD89B988E18AB954
S11306508EE880BD6FE173E08BE193E00E94590363
S1130660089597FB072E16F4009407D077FD09D060
S11306700E94450307FC05D03EF4909581959F4F59
S11306800895709561957F4F0895AA1BBB1B51E196
S113069007C0AA1FBB1FA617B70710F0A61BB70BEE
S11306A0881F991F5A95A9F780959095BC01CD0193
S11306B008950F931F93CF93DF93009731F461153F
S11306C0710519F480E090E03AC08B01EC016EE012
S11306D070E081E090E00E949B05FC01892B91F37E
S11306E080E883830115110571F01387028781E87F
S11306F083838091950190919601892B21F4F09345
S11307009601E09395012097C9F0D187C087838132
S1130710826083838091970190919801892B71F471
S1130720F0939801E09397018091990190919A0137
S1130730892B21F4F0939A01E0939901CF01DF9181
S1130740CF911F910F910895A0E0B0E0EAEAF3E0A1
S11307500C949F07AE014B5F5F4FFA016191719159
S1130760AF0180919701909198010E94BA03E2E051
S11307700C94BB07ABE0B0E0E0ECF3E00C948F0723
S11307806C017B018A01FC0117821682838181FF3F
S1130790CCC1CE0101963C01F6019381F70193FD92
S11307A0859193FF81917F01882309F4BAC1853231
S11307B039F493FD859193FF81917F01853229F46A
S11307C0B60190E00E94F506E7CF912C212C312C44
S11307D0FFE1F315D8F08B3279F038F4803279F0F8
S11307E08332A1F4232D20611DC08D3261F080334A
S11307F069F4232D216016C0832D8260382EE32DE9
S1130800E4603E2E2AC0F32DF8601DC037FC2DC0D5
S113081020ED280F2A3040F08E32B9F436FC81C125
S1130820232D2064322E19C036FE06C08AE0989E1D
S1130830200D1124922E11C0EAE02E9E200D1124C9
S1130840222EF32DF0623F2E08C08C3621F4832D26
S11308508068382E02C0883641F4F70193FD8591F3
S113086093FF81917F018111B3CF982F9F7D955480
S1130870933028F40C5F1F4F9FE399830DC0833698
S113088031F0833771F0833509F059C021C0F80184
S1130890808189830E5F1F4F88248394912C530198
S11308A013C02801F2E04F0E511CF801A080B18062
S11308B036FE03C0692D70E002C06FEF7FEFC50103
S11308C00E94EA064C018201F32DFF773F2E16C0E9
S11308D0280122E0420E511CF801A080B18036FEAE
S11308E003C0692D70E002C06FEF7FEFC5010E9465
S11308F0D8064C01F32DF0683F2E820133FC1BC057
S1130900822D90E088169906B0F4B60180E290E05A
S11309100E94F5062A94F4CFF50137FC859137FE41
S113092081915F01B60190E00E94F50621102A949E
S113093021E0821A91088114910471F7E8C0843689
S113094011F0893641F5F80137FE07C060817181E5
S1130950828193810C5F1F4F08C060817181072ED3
S1130960000C880B990B0E5F1F4FF32DFF763F2E63
S113097097FF09C090958095709561957F4F8F4F33
S11309809F4FF0683F2E2AE030E0A3010E94310718
S1130990882E861845C0853731F4232D2F7EB22E3C
S11309A02AE030E025C0932D997FB92E8F36C1F00F
S11309B018F4883579F0B5C0803719F0883721F0FC
S11309C0B0C0E92FE061BE2EB4FE0DC0FB2DF46073
S11309D0BF2E09C034FE0AC0292F2660B22E06C0DD
S11309E028E030E005C020E130E002C020E132E040
S11309F0F801B7FE07C060817181828193810C5F29
S1130A001F4F06C06081718180E090E00E5F1F4F30
S1130A10A3010E943107882E8618FB2DFF773F2EF5
S1130A2036FE0DC0232D2E7FA22E891458F434FED9
S1130A300BC032FC09C0832D8E7EA82E05C0B82CB5
S1130A40A32C03C0B82C01C0B92CA4FE0FC0FE0116
S1130A50E80DF11D8081803321F49A2D997EA92E11
S1130A6009C0A2FE06C0B394B39404C08A2D86784C
S1130A7009F0B394A3FC11C0A0FE06C0B21488F41C
S1130A80280C922C9B180EC0B21460F4B60180E2BC
S1130A9090E00E94F506B394F7CFB21418F42B1823
S1130AA002C0982C212CA4FE10C0B60180E390E073
S1130AB00E94F506A2FE17C0A1FC03C088E790E0DF
S1130AC002C088E590E0B6010CC08A2D867859F002
S1130AD0A1FE02C08BE201C080E2A7FC8DE2B60158
S1130AE090E00E94F506891438F4B60180E390E0A2
S1130AF00E94F5069A94F7CF8A94F301E80DF11D4C
S1130B008081B60190E00E94F5068110F5CF222085
S1130B1009F442CEB60180E290E00E94F5062A94E0
S1130B20F6CFF6018681978102C08FEF9FEF2B9657
S1130B30E2E10C94AB070F931F93CF93DF93869F4F
S1130B408001879F100D969F100D1124C8010E94EB
S1130B50B705EC01009729F0A80160E070E00E945D
S1130B60E306CE01DF91CF911F910F9108950F936A
S1130B701F93CF93DF938230910510F482E090E0CD
S1130B80E0919D01F0919E0120E030E0A0E0B0E012
S1130B90309719F140815181028113814817590717
S1130BA0C8F08417950769F4109731F012960C93E6
S1130BB0129713961C9327C000939D0110939E01D6
S1130BC022C02115310519F04217530718F49A0170
S1130BD0BD01EF01DF01F801DBCF21153105F9F08B
S1130BE0281B390B2430310580F48A819B816115DF
S1130BF0710521F0FB019383828304C090939E01CD
S1130C0080939D01FE01329644C0FE01E20FF31F62
S1130C108193919322503109398328833AC02091DA
S1130C209B0130919C01232B41F4209102013091CE
S1130C30030130939C0120939B012091000130918A
S1130C4001012115310541F42DB73EB7409104014E
S1130C5050910501241B350BE0919B01F0919C01FF
S1130C60E217F307A0F42E1B3F0B2817390778F07F
S1130C70AC014E5F5F4F2417350748F04E0F5F1FDE
S1130C8050939C0140939B018193919302C0E0E0B7
S1130C90F0E0CF01DF91CF911F910F910895CF9391
S1130CA0DF93009709F481C0FC013297138212820A
S1130CB0A0919D01B0919E01109781F42081318112
S1130CC0820F931F20919B0130919C0128173907B3
S1130CD051F5F0939C01E0939B0167C0ED0120E086
S1130CE030E0CE17DF0740F44A815B819E01411555
S1130CF05105F1F0EA01F5CFD383C28340815181DC
S1130D00840F951FC817D90759F488819981840FD6
S1130D10951F0296918380838A819B81938382832A
S1130D202115310529F4F0939E01E0939D013DC006
S1130D30E901FB83EA8349915991C40FD51FEC174C
S1130D40FD0761F480819181840F951F0296E9016A
S1130D5099838883828193819B838A83E0E0F0E096
S1130D6012968D919C911397009719F0FD01DC0167
S1130D70F7CF8D919C9111979D012E5F3F4F820F6C
S1130D80931F20919B0130919C012817390769F426
S1130D90309729F410929E0110929D0102C0138293
S1130DA01282B0939C01A0939B01DF91CF9108958F
S1130DB0FC010590615070400110D8F78095909522
S1130DC08E0F9F1F0895DC0101C06D934150504068
S1130DD0E0F70895FC016150704001900110D8F7CC
S1130DE0809590958E0F9F1F08950F931F93CF9317
S1130DF0DF93FB01238121FD03C08FEF9FEF2CC004
S1130E0022FF16C04681578124813581421753073A
S1130E1044F4A081B1819D012F5F3F4F3183208332
S1130E208C93268137812F5F3F4F3783268314C0ED
S1130E308B01EC01FB010084F185E02D0995892BE0
S1130E40E1F6D80116968D919C9117970196179605
S1130E509C938E931697CE01DF91CF911F910F91A2
S1130E600895FA01AA27283051F1203181F1E8943C
S1130E706F936E7F6E5F7F4F8F4F9F4FAF4FB1E089
S1130E803ED0B4E03CD0670F781F891F9A1FA11D84
S1130E90680F791F8A1F911DA11D6A0F711D811D85
S1130EA0911DA11D20D009F468943F912AE0269F4A
S1130EB011243019305D3193DEF6CF010895462FA9
S1130EC04770405D4193B3E00FD0C9F7F6CF462F8A
S1130ED04F70405D4A3318F0495D31FD40524193F3
S1130EE002D0A9F7EACFB4E0A695979587957795B0
S1130EF06795BA95C9F700976105710508959B0137
S1130F00AC010A2E06945795479537952795BA95BF
S1130F10C9F7620F731F841F951FA01D08952F9298
S1130F203F924F925F926F927F928F929F92AF9275
S1130F30BF92CF92DF92EF92FF920F931F93CF93C2
S1130F40DF93CDB7DEB7CA1BDB0B0FB6F894DEBF59
S1130F500FBECDBF09942A88398848885F846E847F
S1130F607D848C849B84AA84B984C884DF80EE80C9
S1130F70FD800C811B81AA81B981CE0FD11D0FB6D2
S1130F80F894DEBF0FBECDBFED010895F894FFCFF6
S1130F9000009F0120004D435032353135206973E4
S1130FA0204E4F542073657420746F204C4F4F5063
S1130FB04241434B210A0D00456720657220696E4A
S1130FC06E692063616E20696E7465727570742C2D
S1130FD020686572207661206461206B6F73656C94
S1130FE06567200A0D0A0D004D4350323531352016
S1130FF06973204E4F5420696E20636F6E66696773
S113100075726174696F6E206D6F646520616674BA
S11310106572207265736574210A0D002564200AC7
S10510200D00BD
S9030000FC
