S01700004763634170706C69636174696F6E322E737265635A
S214080000C8080020B1030800AD030800AD030800C7
S214080010AD030800AD030800AD03080000000000AB
S214080020000000000000000000000000AD0308000B
S214080030AD03080000000000AD030800AD0308008B
S214080040AD030800AD030800AD030800AD030800C3
S214080050AD030800AD030800AD030800AD030800B3
S21408006035090800AD03080000000000AD030800CD
S214080070AD030800AD030800AD030800000000004B
S21408008000000000AD030800AD030800AD0308003B
S214080090AD030800AD030800AD030800AD03080073
S2140800A0AD03080000000000AD030800AD0308001B
S2140800B0AD030800AD030800AD030800AD03080053
S2140800C0AD030800AD030800AD030800AD03080043
S2140800D0AD030800AD030800AD030800AD03080033
S2140800E0AD030800AD030800AD03080005030800CB
S2140800F0AD03080010B5054C237833B9044B13B18B
S2140801000448AFF300800123237010BD3404002098
S21408011000000000900B08000C4B43B10C4810B5CB
S2140801200C49AFF300800C48036823B910BD0A4891
S214080130036833B97047094B002BF7D0BDE8104069
S2140801401847064B002BF5D0184700BF00000000E4
S214080150900B080038040020900B080000000000F0
S2140801602022084BC3F80021074A136843F004030B
S2140801701360064B01221A615A6842F080025A60E0
S214080180704700BF00060E40000E0E4000000C40F0
S2140801902DE9F0435518082998BF082A64D80E4652
S2140801A0082D61DC324A136823F0010313601369D3
S2140801B0304B4FF440745C641C6F24F003041C67D7
S2140801C003245C605C66A3F500632B4CC3F80C4103
S2140801D0D3F8004144F40064C3F800415061A942D2
S2140801E040DC0A460024A146DFF884804FF0005C15
S2140801F04FF0807E0127530103F1402000F53020A0
S214080200C0F804924344C3F808C2C0F800E2D3F822
S2140802101C0240F40000C3F81C0207FA02F31C4351
S21408022001329542E7DA81B1002311494FF00055B3
S2140802304FF0407001EB4312C2F8085203F1100267
S2140802405201885001339E42F4D1094B5C604FF44A
S21408025000610A4A51601A6842F001021A600020DA
S214080260BDE8F0830024DEE70120BDE8F08300BF88
S21408027000400B40000E0E402B10001000E100E07E
S2140802804B0103F1402303F53023D3F8103213F45F
S214080290000F33D030B44B0103F1402303F530236D
S2140802A0D3F81422D3F81842D3F80852C5F38A456F
S2140802B00580D3F81032C3F3034383701D465BB141
S2140802C003300023032BD9BF0270120A0470240AD5
S2140802D001330130AB42F5D1094B01F1100252014E
S2140802E04FF08070985003EB4111D1F81C3243F45C
S2140802F00003C1F81C32002030BC7047012070474C
S21408030000400B4010B584B0154B1C6914F0060F5E
S21408031010D014F0020F1AD114F0040F1CD00221CA
S21408032001A8104B98479DF806201AB10023013300
S2140803309342FCD114F0010F02D00122084B9A60B8
S2140803404FF40062084BC3F8842104B010BD0121A5
S21408035001A8044B9847E6E70448054B9847E2E7A8
S21408036000400B408102080000E100E00C0B08008A
S214080370850808004022054BC3F80021A3F5C333BF
S21408038000225A6002221A61704700BF00060E401B
S2140803904FF40072044B1A63A3F5CA335A6842F442
S2140803A080325A601862704700140E40FEE700005C
S2140803B008B5184B184A9A4210D0184B154A9A4254
S2140803C00CD2013B9B1A23F003030433134412494F
S2140803D051F8040B42F8040B9A42F9D1104B114A13
S2140803E09A420AD2013B9B1A23F0030304331344B0
S2140803F0002142F8041B9342FBD10B4B23F06043C9
S21408040023F07F03094A9360094B9847094B98479E
S214080410FEE700BF00000020900B08003404002010
S214080420C8040020340400200000080000ED00E0A6
S2140804309D090800DD0408004FF48063204A136015
S21408044002F5007213601F4B1B6A13F0807F07D1FA
S2140804501D4A1C4B1A621A46936E13F0010FFBD006
S2140804601A4A184B1A621A46936E13F4803FFBD04A
S214080470144A136B23F0030343F001031363936ECC
S21408048013F0080FFBD0124A0E4B9A621A46936E68
S21408049013F0020FFBD011220A4B1A631A46936E0A
S2140804A013F0080FFBD01222064B1A631A46936EF7
S2140804B013F0080FFBD0074A074B1A60704700BFB7
S2140804C0000A0E4000060E400908370009083701E2
S2140804D0013F0D2000BD01050000002070B5104B3F
S2140804E09847104B9847012211460F480F4B9847DC
S2140804F04FF400420E4B5A600E4B98470E4B9847E7
S2140805000E4B98470E4C0F4E0F4D00212046B04715
S214080510A079A847A1790D480D4B9847F5E700BF85
S21408052039040800A9080800610529009101080097
S214080530501A0E40550508006101080075030800AA
S214080540500400208102080091030800380B0800B8
S21408055085080800174B1A6942F400521A61D3F846
S214080560002142F01002C3F8002103F540635A68E0
S21408057042F400225A601A6F42F400221A670E4BA1
S2140805801A6842F4C06242F001021A60D3F8A02248
S21408059042F00B02C3F8A0224FF4CD42C3F8AC22B7
S2140805A045F6D062C3F8A4225A6842F020025A6080
S2140805B0704700BF00060E40004009402DE9F8438A
S2140805C00D46161E48DD0A78002A35D00A4600244D
S2140805D0013412F8011F0029FAD1A6422DDC0024A6
S2140805E003F00202002A0CBF4FF020084FF0300834
S2140805F013F0010323D1002C28DD26465FFA88F97C
S214080600184F4846B847013EFBD1287888B1154FA1
S214080610B847013415F8010F0028F9D1002E08DD77
S21408062035465FFA88F80F4F4046B847013DFBD17C
S21408063034442046BDE8F8830024341BD0E7264619
S214080640287808B10024E2E70024E7E726461C4697
S214080650DBE74FF02008D8E713F00104F9D04FF095
S2140806602008EDE711090800F0B585B0074681B304
S2140806700C460BB10A2A38D000238DF80F30002616
S214080680002946D00DF10F050C993A39B4FBF2F360
S21408069002FB1343092BC8BF5B18303305F8013D2E
S2140806A0B4FBF2F4002CF1D156B10A9B1BB10B9B9C
S2140806B013F0020F25D12D2305F8013C013D002635
S2140806C00B9B0A9A29463846144CA047304405B076
S2140806D0F0BD30238DF8043000238DF805300B9BD1
S2140806E00A9A01A90D4CA047F1E70029C4DA4C4242
S2140806F000238DF80F300DF10F05002CD5D00126FC
S214080700C0E72D20064B98470A9B013B0A93012613
S214080710D6E71E460DF10F05D2E700BFBD05080057
S214080720110908002DE9F04F87B080460B78002B9A
S21408073000F094808B46174600254E4EDFF83CA105
S214080740DFF83C9146E0002270E0396804374A48F2
S214080750002908BF01464046D047054435E03968B9
S2140807600437612002900193009201230A22404632
S214080770C847054429E03968043761200290019388
S2140807800092002310224046C84705441DE03968F9
S214080790043741200290019300920023102240461D
S2140807A0C847054411E03968043761200290019370
S2140807B0009200230A224046C847054405E0A3469F
S2140807C09BF80000B04701355C4604F1010B6378DE
S2140807D0002B44D0252BF3D10BF101049BF80130F4
S2140807E0002B3CD0252BEAD02D2B06BF0BF102049C
S2140807F0012300232278302A05D143F0020314F897
S214080800012F302AF9D02178A1F13002D2B2092A74
S21408081099D8002202EB8202303901EB420214F822
S214080820011FA1F13000C0B20928F3D973298CD072
S214080830642994D078299ED05829A8D07529B2D092
S2140808406329C2D1396804378DF8141000218DF851
S214080850151005A94046D0470544B6E70025B8F167
S214080860000F03D0D8F8003000221A70284607B0C8
S214080870BDE8F08F11090800400B0800BD05080008
S214080880690608000FB400B583B004AA52F8041B22
S21408089001920020034B984703B05DF804EB04B0C0
S2140808A0704700BF25070800164B00221A705A70BA
S2140808B0154B4FF44071596459601A6F186F02400F
S2140808C022F440721A6759664FF48072A3F50063E3
S2140808D01A6103F50073AC21196040F223211962EE
S2140808E04FF40061596040F20221C3F820114FF01E
S2140808F0FF31D960E121996004490A6050221A60E4
S214080900704700BF60040020000E0E4000E100E0C3
S214080910074B5B6913F0020F08D0054BD8611A46DF
S214080920536913F4007FFBD00020704701207047FE
S21408093000080E4008B5154B5B6913F0E00F03D0AE
S2140809404FF4A871114A116013F0010F12D0104825
S2140809504278531C594203F03F0301F03F0158BF49
S2140809604B4201788B4206D00849886908490A44F0
S21408097090704B7008BD0748074B9847034B9A6919
S214080980034B59780B449A7008BD00BF00080E4008
S21408099060040020480B08008508080070B50F4E54
S2140809A00F4D761BB61018BF002405D0013455F835
S2140809B0043B9847A642F9D10A4E0B4D00F0D6F8EC
S2140809C0761BB61018BF002406D0013455F8043B31
S2140809D09847A642F9D170BD70BD00BF780B0800D5
S2140809E0780B0800800B0800780B0800024B13B140
S2140809F0024800F005B87047000000000D0A08001D
S214080A00002301461A46184600F01EB838B50A4CA8
S214080A100A4D641BA4100AD004F18043013B05EB81
S214080A208305013C55F804399847002CF9D1BDE8F0
S214080A30384000F0A5B800BF900B08008C0B0800E3
S214080A40704700BF704700BF2DE9F8432C4D064697
S214080A50286898460F469146FFF7F2FF294B1C6810
S214080A60D4F84831002B3ED05A681F2A1CDC02F105
S214080A70010E76B1012103EB8204C4F88890D3F8FE
S214080A80880191400843022EC3F88801C4F80881FB
S214080A9023D00232C3F804E0286843F82270FFF730
S214080AA0D1FF0020BDE8F883174B0BB34FF4C8708E
S214080AB0AFF300800346D8B10020D4F848114FF0B1
S214080AC0010E586019600246C4F84831C3F8880118
S214080AD0C3F88C01002EDCD0CCE7D3F88C01014398
S214080AE0C3F88C11D5E704F5A673C4F84831BBE7FC
S214080AF02868FFF7A7FF4FF0FF30BDE8F88300BF70
S214080B0030040020680B08000000000043414E3007
S214080B10206D6573736167652061727269766564B6
S214080B2020696E206E6F6E2D75736564206D616921
S214080B306C626F780A0D000025640A0D000000003C
S214080B40286E756C6C2900004552523A2055415261
S214080B50542052582062756666657220697320664E
S214080B60756C6C0A0D00000008000020F8B500BF80
S214080B70F8BC08BC9E467047ED0908001901080035
S214080B80F8B500BFF8BC08BC9E467047F5000800DC
S214080B9000093D000000000000000000F4020020EC
S214080BA05C030020C40300200000000000000000D2
S214080BB00000000000000000000000000000000028
S214080BC00000000000000000000000000000000018
S214080BD00000000000000000000000000000000008
S214080BE000000000000000000000000000000000F8
S214080BF000000000000000000000000000000000E8
S214080C0000000000000000000000000000000000D7
S214080C1000000000000000000000000000000000C7
S214080C2000000000000000000000000000000000B7
S214080C3000000000000000000000000000000000A7
S214080C4001000000000000000E33CDAB34126DE644
S214080C50ECDE05000B0000000000000000000000AD
S214080C600000000000000000000000000000000077
S214080C700000000000000000000000000000000067
S214080C800000000000000000000000000000000057
S214080C900000000000000000000000000000000047
S208080FC0A404002058
S804080000F3
