S01700004763634170706C69636174696F6E322E737265635A
S214080000F0080020C5030800C1030800C103080063
S214080010C1030800C1030800C1030800000000006F
S214080020000000000000000000000000C1030800F7
S214080030C103080000000000C10308007909080091
S214080040C1030800C1030800C1030800C103080073
S214080050C1030800C1030800C1030800C103080063
S214080060150D0800C103080000000000C1030800C1
S214080070C1030800C1030800C1030800000000000F
S21408008000000000C1030800C1030800C1030800FF
S214080090C1030800C1030800C1030800C103080023
S2140800A0C103080000000000C1030800C1030800DF
S2140800B0C1030800C1030800C1030800C103080003
S2140800C0C1030800C1030800C1030800C1030800F3
S2140800D0C1030800C1030800C1030800C1030800E3
S2140800E0C1030800C1030800C1030800050308008F
S2140800F0C103080010B5054C237833B9044B13B177
S2140801000448AFF300800123237010BD3404002098
S214080110000000005C1708000C4B43B10C4810B5F3
S2140801200C49AFF300800C48036823B910BD0A4891
S214080130036833B97047094B002BF7D0BDE8104069
S2140801401847064B002BF5D0184700BF00000000E4
S2140801505C170800380400205C1708000000000040
S2140801602022084BC3F80021074A136843F004030B
S2140801701360064B01221A615A6842F080025A60E0
S214080180704700BF00060E40000E0E4000000C40F0
S2140801902DE9F0435518082998BF082A64D80E4652
S2140801A0082D61DC324A136823F0010313601369D3
S2140801B0304B4FF440745C641C6F24F003041C67D7
S2140801C003245C605C66A3F500632B4CC3F80C4103
S2140801D0D3F8004144F40064C3F800415061A942D2
S2140801E040DC0A460024A146DFF884804FF0005C15
S2140801F04FF0807E0127530103F1402000F53020A0
S214080200C0F804924344C3F808C2C0F800E2D3F822
S2140802101C0240F40000C3F81C0207FA02F31C4351
S21408022001329542E7DA81B1002311494FF00055B3
S2140802304FF0407001EB4312C2F8085203F1100267
S2140802405201885001339E42F4D1094B5C604FF44A
S21408025000610A4A51601A6842F001021A600020DA
S214080260BDE8F0830024DEE70120BDE8F08300BF88
S21408027000400B40000E0E402B10001000E100E07E
S2140802804B0103F1402303F53023D3F8103213F45F
S214080290000F33D030B44B0103F1402303F530236D
S2140802A0D3F81422D3F81842D3F80852C5F38A456F
S2140802B00580D3F81032C3F3034383701D465BB141
S2140802C003300023032BD9BF0270120A0470240AD5
S2140802D001330130AB42F5D1094B01F1100252014E
S2140802E04FF08070985003EB4111D1F81C3243F45C
S2140802F00003C1F81C32002030BC7047012070474C
S21408030000400B4010B584B0154B1C6914F0060F5E
S21408031010D014F0020F1AD114F0040F1CD00221CA
S21408032001A8104B98479DF806201AB10023013300
S2140803309342FCD114F0010F02D00122084B9A60B8
S2140803404FF40062084BC3F8842104B010BD0121A5
S21408035001A8044B9847E6E70448054B9847E2E7A8
S21408036000400B408102080000E100E0D0160800BB
S214080370650C08000C4AD2F8003143F04003C2F876
S21408038000310A4B5A685A605A6842F480325A60FA
S2140803905A685A601A6942F002021A61044A136BD4
S2140803A043F400731363704700060E4000800C4049
S2140803B000140E400001014B1862704700800C4084
S2140803C0FEE7000008B5184B184A9A4210D0184B9A
S2140803D0154A9A420CD2013B9B1A23F003030433B6
S2140803E01344124951F8040B42F8040B9A42F9D107
S2140803F0104B114A9A420AD2013B9B1A23F0030378
S21408040004331344002142F8041B9342FBD10B4BE0
S21408041023F0604323F07F03094A9360094B98470B
S214080420094B9847FEE700BF000000205C1708004D
S21408043034040020F00400203404002000000800E3
S21408044000ED00E061150800F10408004FF4806331
S214080450204A136002F5007213601F4B1B6A13F0E4
S214080460807F07D11D4A1C4B1A621A46936E13F0FA
S214080470010FFBD01A4A184B1A621A46936E13F4E9
S214080480803FFBD0144A136B23F0030343F00103A9
S2140804901363936E13F0080FFBD0124A0E4B9A6242
S2140804A01A46936E13F0020FFBD011220A4B1A63FA
S2140804B01A46936E13F0080FFBD01222064B1A63E7
S2140804C01A46936E13F0080FFBD0074A074B1A60BC
S2140804D0704700BF000A0E4000060E4009083700A5
S2140804E009083701013F0D2000BD01050000002066
S2140804F02DE9F04184B0224B9847224B98470122B9
S21408050011462148214B98474FF40042204B5A6029
S214080510204B9847204B9847204B9847204B9847A6
S214080520204B9847204B9847204C236800220121EF
S21408053008461F4DA84720681E4B98471E4CDFF8F4
S21408054098801E4F00212046C047E079B8471C4EC9
S214080550E37833701B4B98471B4B188085B231786D
S2140805600295124B1B68019322686368A068009086
S2140805702846164DA8471648164B9847E2E700BF88
S2140805804D040800890C080061052900910108003F
S214080590501A0E4009080800610108007503080093
S2140805A071080800DD050800290908005404002021
S2140805B009070800010808005C0400208D080800E8
S2140805C058040020790608006C040020D9060800A4
S2140805D0FC160800650C08008102080010B4234BBE
S2140805E0D3F8E42042F00102C3F8E420D3F8E4107C
S2140805F01F4A0A43C3F8E4201A6942F480421A6183
S2140806001A6942F400521A6103F5606301221A60FF
S2140806104FF400741C604FF480621A6004221A605B
S21408062002221A60134A116841F4FF711160D3F868
S214080630A01040F207600143C3F8A010D2F8A41037
S21408064041F4FF71C2F8A410596C01435964516C07
S21408065041F4FF715164196901431961516941F404
S214080660FF7151611C6310BC704700BF00060E4046
S21408067000434D5000120E402DE9F843104C01255A
S21408068065634FF00409C4F834901420DFF84480FA
S214080690C0470C4FFB6B0C4E3370C4F830901420D8
S2140806A0C047F86BC0B2094B187002236363236314
S2140806B0337840EA0320064B18802563BDE8F883A4
S2140806C000140E4000120E4085040020840400200A
S2140806D06C0400200509080010B504460846B02931
S2140806E04FF48061054A4CBF516311631A4621B224
S2140806F0034B9847C0B2034B984710BD00140E40F2
S21408070031070800B503080000225A601A801881CD
S2140807105981013047F6FF7292FBF0F0D88101311B
S2140807206FF0404292FBF1F119617047000000003B
S21408073070B5064614460846294B984724A3D3E9BD
S2140807400023284DA84724A3D3E90023264DA8470D
S214080750264B984700B280F3080529462448254BBF
S2140807609847731B98B202B2B4F90E309A4207DC67
S2140807705B429A421EDB238903FB00F31BB201E0AF
S21408078047F6FF7361680A4421698A4214DD61608E
S2140807906FF0404225809B1848BF7F33DB11164810
S2140807A08342B8BF034647F6FF709842A8BF18466C
S2140807B000B270BD104BE5E749428A4202DA616032
S2140807C00E4AE7E76260B4F90A1002FB01F2E1E7B5
S2140807D0000000000094D1400000000000E06F40D8
S2140807E02110080041130800ED1008001115080034
S2140807F004170800650C08000180FFFF010000C010
S2140808000023436070470000174B1A6942F40052F1
S2140808101A61D3F8002142F01002C3F8002103F54C
S21408082040635A6842F400225A601A6F42F4002263
S2140808301A670E4B1A6842F4C06242F001021A6048
S214080840D3F8A02242F00B02C3F8A0224FF4CD4200
S214080850C3F8AC2245F6D062C3F8A4225A6842F020
S21408086020025A60704700BF00060E40004009404C
S2140808704FF48022044B1A6103F54063196F114345
S21408088019671A601A61704700060E4000B970476B
S21408089038B5044C4FF4802525631E20024B984734
S2140808A0656338BD00120E40E1080800054B42F6A5
S2140808B003125A6000229A601A6842F003021A600D
S2140808C0704700BF10E000E0044B0A225A6000227E
S2140808D09A601A6842F003021A60704710E000E057
S2140808E010B5064C2060064B9847236823B122466D
S2140808F000BF1368002BFBD110BD00BF50040020BA
S214080900AD08080010B5064C2060064B98472368CB
S21408091023B1224600BF1368002BFBD110BD00BFD1
S21408092050040020C9080800114B08221A61114912
S214080930D1F8002142F01002C1F800211A6842F4EA
S214080940C06242F001021A60D3F8602242F00B023D
S214080950C3F860224FF4CD42C3F86C2245F6D06245
S214080960C3F864225A6842F008025A60704700BF0B
S2140809700040094000060E40064B1B6823B1054A96
S2140809801368013B13607047034B00221A609A6095
S214080990704700BF5004002010E000E02DE9F8433F
S2140809A00D46161E48DD0A78002A35D00A46002469
S2140809B0013412F8011F0029FAD1A6422DDC0024C2
S2140809C003F00202002A0CBF4FF020084FF0300850
S2140809D013F0010323D1002C28DD26465FFA88F998
S2140809E0184F4846B847013EFBD1287888B1154FBE
S2140809F0B847013415F8010F0028F9D1002E08DD94
S214080A0035465FFA88F80F4F4046B847013DFBD198
S214080A1034442046BDE8F8830024341BD0E7264635
S214080A20287808B10024E2E70024E7E726461C46B3
S214080A30DBE74FF02008D8E713F00104F9D04FF0B1
S214080A402008EDE7F10C0800F0B585B0074681B33D
S214080A500C460BB10A2A38D000238DF80F30002632
S214080A60002946D00DF10F050C993A39B4FBF2F37C
S214080A7002FB1343092BC8BF5B18303305F8013D4A
S214080A80B4FBF2F4002CF1D156B10A9B1BB10B9BB8
S214080A9013F0020F25D12D2305F8013C013D002651
S214080AA00B9B0A9A29463846144CA047304405B092
S214080AB0F0BD30238DF8043000238DF805300B9BED
S214080AC00A9A01A90D4CA047F1E70029C4DA4C425E
S214080AD000238DF80F300DF10F05002CD5D0012618
S214080AE0C0E72D20064B98470A9B013B0A93012630
S214080AF0D6E71E460DF10F05D2E700BF9D09080090
S214080B00F10C08002DE9F04F87B080460B78002BD3
S214080B1000F094808B46174600254E4EDFF83CA121
S214080B20DFF83C9146E0002270E0396804374A480E
S214080B30002908BF01464046D047054435E03968D5
S214080B400437612002900193009201230A2240464E
S214080B50C847054429E039680437612002900193A4
S214080B600092002310224046C84705441DE0396815
S214080B700437412002900193009200231022404639
S214080B80C847054411E0396804376120029001938C
S214080B90009200230A224046C847054405E0A346BB
S214080BA09BF80000B04701355C4604F1010B6378FA
S214080BB0002B44D0252BF3D10BF101049BF8013010
S214080BC0002B3CD0252BEAD02D2B06BF0BF10204B8
S214080BD0012300232278302A05D143F0020314F8B3
S214080BE0012F302AF9D02178A1F13002D2B2092A91
S214080BF099D8002202EB8202303901EB420214F83F
S214080C00011FA1F13000C0B20928F3D973298CD08E
S214080C10642994D078299ED05829A8D07529B2D0AE
S214080C206329C2D1396804378DF8141000218DF86D
S214080C30151005A94046D0470544B6E70025B8F183
S214080C40000F03D0D8F8003000221A70284607B0E4
S214080C50BDE8F08FF10C08000C1708009D09080085
S214080C60490A08000FB400B583B004AA52F8041B5A
S214080C7001920020034B984703B05DF804EB04B0DC
S214080C80704700BF050B0800164B00221A705A70F2
S214080C90154B4FF44071596459601A6F186F02402B
S214080CA022F440721A6759664FF48072A3F50063FF
S214080CB01A6103F50073AC21196040F2232119620A
S214080CC04FF40061596040F20221C3F820114FF03A
S214080CD0FF31D960E121996004490A6050221A6000
S214080CE0704700BF88040020000E0E4000E100E0B8
S214080CF0074B5B6913F0020F08D0054BD8611A46FC
S214080D00536913F4007FFBD000207047012070471A
S214080D1000080E4008B5154B5B6913F0E00F03D0CA
S214080D204FF4A871114A116013F0010F12D0104841
S214080D304278531C594203F03F0301F03F0158BF65
S214080D404B4201788B4206D00849886908490A440C
S214080D5090704B7008BD0748074B9847034B9A6935
S214080D60034B59780B449A7008BD00BF00080E4024
S214080D708804002014170800650C080081F000415C
S214080D8002E000BF83F0004330B54FEA41044FEA63
S214080D90430594EA050F08BF90EA020F1FBF54EAFE
S214080DA0000C55EA020C7FEA645C7FEA655C00F09A
S214080DB0E2804FEA5454D4EB5555B8BF6D420CDD6B
S214080DC02C4480EA020281EA030382EA000083EAEE
S214080DD0010180EA020281EA0303362D88BF30BD8E
S214080DE011F0004F4FEA01314FF4801C4CEA1131E4
S214080DF002D0404261EB410113F0004F4FEA033343
S214080E004CEA133302D0524263EB430394EA050FCD
S214080E1000F0A780A4F10104D5F1200E0DDB02FA3C
S214080E200EFC22FA05F2801841F1000103FA0EF2D0
S214080E30801843FA05F359410EE0A5F120050EF196
S214080E40200E012A03FA0EFC28BF4CF0020C43FAC7
S214080E5005F3C01851EBE37101F0004507D54FF0D4
S214080E60000EDCF1000C7EEB00006EEB0101B1F524
S214080E70801F1BD3B1F5001F0CD349085FEA30006A
S214080E804FEA3C0C04F101044FEA445212F5800F75
S214080E9080F09A80BCF1004F08BF5FEA500C50F112
S214080EA0000041EB045141EA050130BD5FEA4C0CF5
S214080EB0404141EB010111F4801FA4F10104E9D17E
S214080EC091F0000F04BF01460020B1FA81F308BF75
S214080ED02033A3F10B03B3F120020CDA0C3208DD41
S214080EE002F1140CC2F10C0201FA0CF021FA02F11C
S214080EF00CE002F11402D8BFC2F1200C01FA02F18C
S214080F0020FA0CFCDCBF41EA0C019040E41AA2BFB0
S214080F1001EB0451294330BD6FEA04041F3C1CDA78
S214080F200C340EDC04F11404C4F1200220FA04F098
S214080F3001FA02F340EA030021FA04F345EA030142
S214080F4030BDC4F10C04C4F1200220FA02F001FA04
S214080F5004F340EA0300294630BD21FA04F0294686
S214080F6030BD94F0000F83F4801306BF81F480111F
S214080F700134013D4EE77FEA645C18BF7FEA655C92
S214080F8029D094EA050F08BF90EA020F05D054EA64
S214080F90000C04BF1946104630BD91EA030F1EBF69
S214080FA00021002030BD5FEA545C05D1400049416D
S214080FB028BF41F0004130BD14F580043CBF01F560
S214080FC0801130BD01F0004545F0FE4141F4700146
S214080FD04FF0000030BD7FEA645C1ABF1946104621
S214080FE07FEA655C1CBF0B46024650EA013406BF22
S214080FF052EA033591EA030F41F4002130BD00BFE1
S21408100090F0000F04BF0021704730B54FF480649D
S21408101004F132044FF000054FF0000150E700BF1E
S21408102090F0000F04BF0021704730B54FF480647D
S21408103004F1320410F0004548BF40424FF000016A
S2140810403EE700BF42004FEAE2014FEA31014FEAAD
S21408105002701FBF12F07F4393F07F4F81F06051FC
S214081060704792F0000F14BF93F07F4F704730B56B
S2140810704FF4607401F0004521F0004120E700BFFE
S21408108050EA010208BF704730B54FF000050AE085
S21408109050EA010208BF704730B511F0004502D586
S2140810A0404261EB41014FF4806404F132045FEA88
S2140810B0915C3FF4DCAE4FF003025FEADC0C18BF2D
S2140810C003325FEADC0C18BF033202EBDC02C2F123
S2140810D0200300FA03FC20FA02F001FA03FE40EAB5
S2140810E00E0021FA02F11444C1E600BF70B54FF0B5
S2140810F0FF0C4CF4E06C1CEA11541DBF1CEA135597
S21408110094EA0C0F95EA0C0F00F0DEF82C4481EAFE
S214081110030621EA4C5123EA4C5350EA013518BF1E
S21408112052EA033541F4801143F4801338D0A0FB0B
S21408113002CE4FF00005E1FB02E506F00042E0FBB8
S21408114003E54FF00006E1FB03569CF0000F18BFBE
S2140811504EF0010EA4F1FF04B6F5007F64F5407466
S21408116004D25FEA4E0E6D4146EB060642EAC621F9
S21408117041EA55514FEAC52040EA5E504FEACE2E66
S214081180B4F1FD0C88BFBCF5E06F1ED8BEF1004F69
S21408119008BF5FEA500E50F1000041EB045170BDE5
S2140811A006F0004646EA010140EA020081EA030129
S2140811B0B4EB5C04C2BFD4EB0C0541EA045170BD25
S2140811C041F480114FF0000E013C00F3AB8014F19F
S2140811D0360FDEBF002001F0004170BDC4F10004E8
S2140811E0203C35DA0C341BDC04F11404C4F1200569
S2140811F000FA05F320FA04F001FA05F240EA0200C4
S21408120001F0004221F0004110EBD37021FA04F6F9
S21408121042EB06015EEA430E08BF20EAD37070BDB3
S214081220C4F10C04C4F1200500FA04F320FA05F012
S21408123001FA04F240EA020001F0004110EBD37014
S21408124041F100015EEA430E08BF20EAD37070BD84
S214081250C4F1200500FA05F24EEA020E20FA04F35D
S21408126001FA05F243EA020321FA04F001F000410C
S21408127021FA04F220EA020000EBD3705EEA430E7D
S21408128008BF20EAD37070BD94F0000F0FD101F0AC
S2140812900046400041EB010111F4801F08BF013CE5
S2140812A0F7D041EA060195F0000F18BF704703F023
S2140812B00046520043EB030313F4801F08BF013DAA
S2140812C0F7D043EA0603704794EA0C0F0CEA135566
S2140812D018BF95EA0C0F0CD050EA410618BF52EA20
S2140812E04306D1D181EA030101F000414FF0000026
S2140812F070BD50EA410606BF1046194652EA430634
S21408130019D094EA0C0F02D150EA013613D195EAA7
S2140813100C0F05D152EA03361CBF104619460AD1EF
S21408132081EA030101F0004141F0FE4141F47001F9
S2140813304FF0000070BD41F0FE4141F4780170BDE9
S21408134070B54FF0FF0C4CF4E06C1CEA11541DBF4E
S2140813501CEA135594EA0C0F95EA0C0F00F0A7F850
S214081360A4EB050481EA030E52EA03354FEA01317D
S21408137000F088804FEA03334FF0805545EA131390
S21408138043EA12634FEA022245EA111545EA106558
S2140813904FEA00260EF000419D4208BF964244F1EF
S2140813A0FD0404F5407402D25B084FEA3202B61A0E
S2140813B065EB03055B084FEA32024FF480104FF4E2
S2140813C0002CB6EB020E75EB030E22BFB61A754656
S2140813D040EA0C005B084FEA3202B6EB020E75EBE9
S2140813E0030E22BFB61A754640EA5C005B084FEA51
S2140813F03202B6EB020E75EB030E22BFB61A75461E
S21408140040EA9C005B084FEA3202B6EB020E75EB28
S214081410030E22BFB61A754640EADC0055EA060EE9
S21408142018D04FEA051545EA16754FEA06164FEA2C
S214081430C30343EA52734FEAC2025FEA1C1CC0D1D8
S21408144011F4801F0BD141EA00014FF000004FF065
S214081450004CB6E711F4801F04BF01430020B4F126
S214081460FD0C88BFBCF5E06F3FF6AFAEB5EB030CDE
S21408147004BFB6EB020C5FEA500C50F1000041EBDB
S214081480045170BD0EF0004E4EEA113114EB5C04A8
S214081490C2BFD4EB0C0541EA045170BD41F480117B
S2140814A04FF0000E013C90E645EA060E8DE60CEA83
S2140814B0135594EA0C0F08BF95EA0C0F3FF43BAFA0
S2140814C094EA0C0F0AD150EA01347FF434AF95EA57
S2140814D00C0F7FF425AF104619462CE795EA0C0F3B
S2140814E006D152EA03353FF4FDAE1046194622E708
S2140814F050EA410618BF52EA43067FF4C5AE50EAE2
S21408150041047FF40DAF52EA43057FF4EBAE12E7D1
S2140815104FEA410212F5001215D211D56FF478730E
S214081520B3EB625212D94FEAC12343F0004343EAB1
S214081530505311F0004F23FA02F018BF404270478C
S2140815404FF00000704750EA013005D111F0004016
S21408155008BF6FF0004070474FF00000704700BFAC
S21408156070B50F4E0F4D761BB61018BF002405D069
S214081570013455F8043B9847A642F9D10A4E0B4D5C
S21408158000F0DAF8761BB61018BF002406D001342F
S21408159055F8043B9847A642F9D170BD70BD00BF08
S2140815A044170800441708004C170800441708009A
S2140815B0024B13B1024800F005B87047000000005F
S2140815C0D1150800002301461A46184600F01EB832
S2140815D038B50A4C0A4D641BA4100AD004F180439F
S2140815E0013B05EB8305013C55F804399847002C68
S2140815F0F9D1BDE8384000F0A9B800BF5C1708006C
S21408160058170800704700BF704700BF2DE9F84319
S2140816102C4D0646286898460F469146FFF7F2FF77
S214081620294B1C68D4F84831002B3ED05A681F2A2C
S2140816301CDC02F1010E76B1012103EB8204C4F82A
S2140816408890D3F8880191400843022EC3F8880191
S214081650C4F8088123D00232C3F804E0286843F8A7
S2140816602270FFF7D1FF0020BDE8F883174B0BB3B5
S2140816704FF4C870AFF300800346D8B10020D4F802
S21408168048114FF0010E586019600246C4F84831F8
S214081690C3F88801C3F88C01002EDCD0CCE7D3F859
S2140816A08C010143C3F88C11D5E704F5A673C4F87A
S2140816B04831BBE72868FFF7A7FF4FF0FF30BDE8C3
S2140816C0F88300BF3004002034170800000000002C
S2140816D043414E30206D6573736167652061727291
S2140816E06976656420696E206E6F6E2D7573656405
S2140816F0206D61696C626F780A0D000068656C6C15
S2140817006F00000025640A0D00000000286E756C46
S2140817106C2900004552523A2055415254205258DE
S214081720206275666665722069732066756C6C0A39
S2140817300D00000008000020F8B500BFF8BC08BC83
S2140817409E467047B115080019010800F8B500BF95
S210081750F8BC08BC9E467047F500080070
S21408175C00093D000000000000000000F402002014
S21408176C5C030020C40300200000000000000000FA
S21408177C0000000000000000000000000000000050
S21408178C0000000000000000000000000000000040
S21408179C0000000000000000000000000000000030
S2140817AC0000000000000000000000000000000020
S2140817BC0000000000000000000000000000000010
S2140817CC0000000000000000000000000000000000
S2140817DC00000000000000000000000000000000F0
S2140817EC00000000000000000000000000000000E0
S2140817FC00000000000000000000000000000000D0
S21408180C01000000000000000E33CDAB34126DE66C
S21408181CECDE05000B0000000000000000000000D5
S21408182C000000000000000000000000000000009F
S21408183C000000000000000000000000000000008F
S21408184C000000000000000000000000000000007F
S21408185C000000000000000000000000000000006F
S208081B8CCC04002058
S804080000F3
