:0200000280007C
:10000000C808002095030800910308009103080028
:10001000910308009103080091030800000000000C
:100020000000000000000000000000009103080034
:1000300091030800000000009103080091030800EC
:100040009103080091030800910308009103080040
:100050009103080091030800910308009103080030
:1000600071090800910308000000000091030800D6
:1000700091030800910308009103080000000000AC
:10008000000000009103080091030800910308009C
:1000900091030800910308009103080091030800F0
:1000A000910308000000000091030800910308007C
:1000B00091030800910308009103080091030800D0
:1000C00091030800910308009103080091030800C0
:1000D00091030800910308009103080091030800B0
:1000E000910308009103080091030800D50208005D
:1000F0009103080010B5054C237833B9044B13B1B4
:100100000448AFF300800123237010BD34040020A5
:1001100000000000E01308000C4B43B10C4810B580
:100120000C49AFF300800C48036823B910BD0A489E
:10013000036833B97047094B002BF7D0BDE8104076
:100140001847064B002BF5D0184700BF00000000F1
:10015000E013080038040020E0130800000000004D
:100160002DE9F0435518082998BF082A64D80E468F
:10017000082D61DC324A136823F001031360136910
:10018000304B4FF440745C641C6F24F003041C6714
:1001900003245C605C66A3F500632B4CC3F80C4140
:1001A000D3F8004144F40064C3F800415061A9420F
:1001B00040DC0A460024A146DFF884804FF0005C52
:1001C0004FF0807E0127530103F1402000F53020DD
:1001D000C0F804924344C3F808C2C0F800E2D3F860
:1001E0001C0240F40000C3F81C0207FA02F31C438F
:1001F00001329542E7DA81B1002311494FF00055F1
:100200004FF0407001EB4312C2F8085203F11002A4
:100210005201885001339E42F4D1094B5C604FF487
:1002200000610A4A51601A6842F001021A60002017
:10023000BDE8F0830024DEE70120BDE8F08300BFC5
:1002400000400B40000E0E402B10001000E100E0BB
:100250004B0103F1402303F53023D3F8103213F49C
:10026000000F33D030B44B0103F1402303F53023AA
:10027000D3F81422D3F81842D3F80852C5F38A45AC
:100280000580D3F81032C3F3034383701D465BB17E
:1002900003300023032BD9BF0270120A0470240A12
:1002A00001330130AB42F5D1094B01F1100252018B
:1002B0004FF08070985003EB4111D1F81C3243F499
:1002C0000003C1F81C32002030BC70470120704789
:1002D00000400B402DE9F04184B02348234B984760
:1002E000234BD3F8108018F0060F26D018F0020F19
:1002F00031D118F0040F33D0022101A81D4B9847CB
:10030000BDF804101C48194CA0479DF806101B4866
:10031000A0479DF806306BB10DF107050024184F7A
:10032000124E15F8011B3846B04701349DF80630CF
:10033000A342F6DC13480D4B984718F0010F02D08A
:1003400001220B4B9A604FF400620F4BC3F88421DB
:1003500004B0BDE8F081012101A8064B9847CFE722
:100360000A48024B9847CBE71C130800C108080055
:1003700000400B40510208005C1308007013080095
:100380008C1308005813080000E100E03013080047
:10039000FEE7000008B5184B184A9A4210D0184BD7
:1003A000154A9A420CD2013B9B1A23F003030433F3
:1003B0001344124951F8040B42F8040B9A42F9D144
:1003C000104B114A9A420AD2013B9B1A23F00303B5
:1003D00004331344002142F8041B9342FBD10B4B1E
:1003E00023F0604323F07F03094A9360094B984749
:1003F000094B9847FEE700BF00000020E01308000B
:1004000034040020C8040020340400200000080048
:1004100000ED00E0AD110800C10408004FF4806356
:10042000204A136002F5007213601F4B1B6A13F021
:10043000807F07D11D4A1C4B1A621A46936E13F037
:10044000010FFBD01A4A184B1A621A46936E13F426
:10045000803FFBD0144A136B23F0030343F00103E6
:100460001363936E13F0080FFBD0124A0E4B9A627F
:100470001A46936E13F0020FFBD011220A4B1A6337
:100480001A46936E13F0080FFBD01222064B1A6324
:100490001A46936E13F0080FFBD0074A074B1A60F9
:1004A000704700BF000A0E4000060E4009083700E2
:1004B00009083701013F0D2000BD010500000020A3
:1004C00008B50C4B98470C4B9847012211460B4836
:1004D0000B4B98474FF400420A4B5A600A4B98471F
:1004E0000A4C0B4E0B4D00212046B047E078A84740
:1004F000F9E700BF1D040800E508080061052900B0
:1005000061010800501A0E4019050800500400202F
:100510005102080081050800174B1A6942F4005285
:100520001A61D3F8002142F01002C3F8002103F54C
:1005300040635A6842F400225A601A6F42F4002263
:100540001A670E4B1A6842F4C06242F001021A6048
:10055000D3F8A02242F00B02C3F8A0224FF4CD4200
:10056000C3F8AC224FF4A462C3F8A4225A6842F044
:1005700020025A60704700BF00060E40004009404C
:1005800010B580F30800164B98470FA3D3E900235A
:10059000144CA0470EA3D3E90023134CA0470EA38D
:1005A000D3E90023114CA047114B984740F6C323D1
:1005B000984228BF184640F29D43984238BF1846DB
:1005C0000C4BC3F8A80210BD0000000000E06F4013
:1005D0000000000000989840000000000074924065
:1005E0007D0C08009D0F0800490D0800E509080072
:1005F0006D110800004009402DE9F8430D46161E14
:1006000048DD0A78002A35D00A460024013412F861
:10061000011F0029FAD1A6422DDC002403F00202BA
:10062000002A0CBF4FF020084FF0300813F00103F0
:1006300023D1002C28DD26465FFA88F9184F48465A
:10064000B847013EFBD1287888B1154FB84701342F
:1006500015F8010F0028F9D1002E08DD35465FFAA4
:1006600088F80F4F4046B847013DFBD1344420463F
:10067000BDE8F8830024341BD0E72646287808B16B
:100680000024E2E70024E7E726461C46DBE74FF0BC
:100690002008D8E713F00104F9D04FF02008EDE767
:1006A0004D090800F0B585B0074681B30C460BB183
:1006B0000A2A38D000238DF80F300026002946D0B2
:1006C0000DF10F050C993A39B4FBF2F302FB134319
:1006D000092BC8BF5B18303305F8013DB4FBF2F4B9
:1006E000002CF1D156B10A9B1BB10B9B13F0020FEA
:1006F00025D12D2305F8013C013D00260B9B0A9ACC
:1007000029463846144CA047304405B0F0BD30238C
:100710008DF8043000238DF805300B9B0A9A01A94F
:100720000D4CA047F1E70029C4DA4C4200238DF8B4
:100730000F300DF10F05002CD5D00126C0E72D207C
:10074000064B98470A9B013B0A930126D6E71E46B3
:100750000DF10F05D2E700BFF90508004D090800AB
:100760002DE9F04F87B080460B78002B00F0948085
:100770008B46174600254E4EDFF83CA1DFF83C9132
:1007800046E0002270E0396804374A48002908BF73
:1007900001464046D047054435E0396804376120BA
:1007A00002900193009201230A224046C847054463
:1007B00029E03968043761200290019300920023F8
:1007C00010224046C84705441DE0396804374120DF
:1007D000029001930092002310224046C84705442E
:1007E00011E03968043761200290019300920023E0
:1007F0000A224046C847054405E0A3469BF800008E
:10080000B04701355C4604F1010B6378002B44D0FE
:10081000252BF3D10BF101049BF80130002B3CD0C8
:10082000252BEAD02D2B06BF0BF102040123002358
:100830002278302A05D143F0020314F8012F302A20
:10084000F9D02178A1F13002D2B2092A99D8002238
:1008500002EB8202303901EB420214F8011FA1F1D0
:100860003000C0B20928F3D973298CD0642994D000
:1008700078299ED05829A8D07529B2D06329C2D131
:10088000396804378DF8141000218DF8151005A96A
:100890004046D0470544B6E70025B8F1000F03D025
:1008A000D8F8003000221A70284607B0BDE8F08F53
:1008B0004D09080090130800F9050800A506080076
:1008C0000FB400B583B004AA52F8041B01920020B3
:1008D000034B984703B05DF804EB04B0704700BFCA
:1008E00061070800164B00221A705A70154B4FF41E
:1008F0004071596459601A6F186F024022F44072B7
:100900001A6759664FF48072A3F500631A6103F504
:100910000073AC21196040F2232119624FF4006189
:10092000596040F20221C3F820114FF0FF31D96025
:10093000E121996004490A6050221A60704700BFA3
:1009400060040020000E0E4000E100E0074B5B69F0
:1009500013F0020F08D0054BD8611A46536913F4FF
:10096000007FFBD0002070470120704700080E4038
:1009700008B5154B5B6913F0E00F03D04FF4A87175
:10098000114A116013F0010F12D010484278531C25
:10099000594203F03F0301F03F0158BF4B42017839
:1009A0008B4206D00849886908490A4490704B7008
:1009B00008BD0748074B9847034B9A69034B597882
:1009C0000B449A7008BD00BF00080E406004002070
:1009D00098130800C108080081F0004102E000BF40
:1009E00083F0004330B54FEA41044FEA430594EAEF
:1009F000050F08BF90EA020F1FBF54EA000C55EA2A
:100A0000020C7FEA645C7FEA655C00F0E2804FEAFA
:100A10005454D4EB5555B8BF6D420CDD2C4480EADC
:100A2000020281EA030382EA000083EA010180EA0C
:100A3000020281EA0303362D88BF30BD11F0004F5A
:100A40004FEA01314FF4801C4CEA113102D0404290
:100A500061EB410113F0004F4FEA03334CEA1333CB
:100A600002D0524263EB430394EA050F00F0A780E3
:100A7000A4F10104D5F1200E0DDB02FA0EFC22FADE
:100A800005F2801841F1000103FA0EF2801843FAD2
:100A900005F359410EE0A5F120050EF1200E012AC3
:100AA00003FA0EFC28BF4CF0020C43FA05F3C01801
:100AB00051EBE37101F0004507D54FF0000EDCF17A
:100AC000000C7EEB00006EEB0101B1F5801F1BD323
:100AD000B1F5001F0CD349085FEA30004FEA3C0C27
:100AE00004F101044FEA445212F5800F80F09A801D
:100AF000BCF1004F08BF5FEA500C50F1000041EB21
:100B0000045141EA050130BD5FEA4C0C404141EB24
:100B1000010111F4801FA4F10104E9D191F0000F4B
:100B200004BF01460020B1FA81F308BF2033A3F1CE
:100B30000B03B3F120020CDA0C3208DD02F1140CC5
:100B4000C2F10C0201FA0CF021FA02F10CE002F100
:100B50001402D8BFC2F1200C01FA02F120FA0CFCF9
:100B6000DCBF41EA0C019040E41AA2BF01EB045142
:100B7000294330BD6FEA04041F3C1CDA0C340EDC40
:100B800004F11404C4F1200220FA04F001FA02F383
:100B900040EA030021FA04F345EA030130BDC4F141
:100BA0000C04C4F1200220FA02F001FA04F340EA36
:100BB0000300294630BD21FA04F0294630BD94F0E7
:100BC000000F83F4801306BF81F480110134013DCE
:100BD0004EE77FEA645C18BF7FEA655C29D094EA3F
:100BE000050F08BF90EA020F05D054EA000C04BFBD
:100BF0001946104630BD91EA030F1EBF00210020A8
:100C000030BD5FEA545C05D14000494128BF41F046
:100C1000004130BD14F580043CBF01F5801130BDAA
:100C200001F0004545F0FE4141F470014FF0000035
:100C300030BD7FEA645C1ABF194610467FEA655CE6
:100C40001CBF0B46024650EA013406BF52EA033588
:100C500091EA030F41F4002130BD00BF90F0000F76
:100C600004BF0021704730B54FF4806404F13204B2
:100C70004FF000054FF0000150E700BF90F0000F6B
:100C800004BF0021704730B54FF4806404F1320492
:100C900010F0004548BF40424FF000013EE700BF62
:100CA00042004FEAE2014FEA31014FEA02701FBFF2
:100CB00012F07F4393F07F4F81F06051704792F0C4
:100CC000000F14BF93F07F4F704730B54FF460743E
:100CD00001F0004521F0004120E700BF50EA010289
:100CE00008BF704730B54FF000050AE050EA010236
:100CF00008BF704730B511F0004502D5404261EBA6
:100D000041014FF4806404F132045FEA915C3FF4E6
:100D1000DCAE4FF003025FEADC0C18BF03325FEA7F
:100D2000DC0C18BF033202EBDC02C2F1200300FA34
:100D300003FC20FA02F001FA03FE40EA0E0021FA59
:100D400002F11444C1E600BF70B54FF0FF0C4CF443
:100D5000E06C1CEA11541DBF1CEA135594EA0C0FF9
:100D600095EA0C0F00F0DEF82C4481EA030621EA34
:100D70004C5123EA4C5350EA013518BF52EA03356F
:100D800041F4801143F4801338D0A0FB02CE4FF021
:100D90000005E1FB02E506F00042E0FB03E54FF051
:100DA0000006E1FB03569CF0000F18BF4EF0010E49
:100DB000A4F1FF04B6F5007F64F5407404D25FEA45
:100DC0004E0E6D4146EB060642EAC62141EA5551F8
:100DD0004FEAC52040EA5E504FEACE2EB4F1FD0C3A
:100DE00088BFBCF5E06F1ED8BEF1004F08BF5FEAB8
:100DF000500E50F1000041EB045170BD06F000466A
:100E000046EA010140EA020081EA0301B4EB5C0416
:100E1000C2BFD4EB0C0541EA045170BD41F480110E
:100E20004FF0000E013C00F3AB8014F1360FDEBF33
:100E3000002001F0004170BDC4F10004203C35DA0F
:100E40000C341BDC04F11404C4F1200500FA05F392
:100E500020FA04F001FA05F240EA020001F0004233
:100E600021F0004110EBD37021FA04F642EB0601A9
:100E70005EEA430E08BF20EAD37070BDC4F10C04D3
:100E8000C4F1200500FA04F320FA05F001FA04F297
:100E900040EA020001F0004110EBD37041F1000183
:100EA0005EEA430E08BF20EAD37070BDC4F120058E
:100EB00000FA05F24EEA020E20FA04F301FA05F2F6
:100EC00043EA020321FA04F001F0004121FA04F29E
:100ED00020EA020000EBD3705EEA430E08BF20EA6E
:100EE000D37070BD94F0000F0FD101F000464000A8
:100EF00041EB010111F4801F08BF013CF7D041EA2A
:100F0000060195F0000F18BF704703F0004652002D
:100F100043EB030313F4801F08BF013DF7D043EAFE
:100F20000603704794EA0C0F0CEA135518BF95EAB4
:100F30000C0F0CD050EA410618BF52EA4306D1D13B
:100F400081EA030101F000414FF0000070BD50EA5A
:100F5000410606BF1046194652EA430619D094EAE4
:100F60000C0F02D150EA013613D195EA0C0F05D1CE
:100F700052EA03361CBF104619460AD181EA030122
:100F800001F0004141F0FE4141F470014FF00000DA
:100F900070BD41F0FE4141F4780170BD70B54FF075
:100FA000FF0C4CF4E06C1CEA11541DBF1CEA1355F5
:100FB00094EA0C0F95EA0C0F00F0A7F8A4EB0504D7
:100FC00081EA030E52EA03354FEA013100F08880CE
:100FD0004FEA03334FF0805545EA131343EA126397
:100FE0004FEA022245EA111545EA10654FEA00264C
:100FF0000EF000419D4208BF964244F1FD0404F505
:10100000407402D25B084FEA3202B61A65EB030560
:101010005B084FEA32024FF480104FF4002CB6EB1D
:10102000020E75EB030E22BFB61A754640EA0C009D
:101030005B084FEA3202B6EB020E75EB030E22BFDD
:10104000B61A754640EA5C005B084FEA3202B6EB1E
:10105000020E75EB030E22BFB61A754640EA9C00DD
:101060005B084FEA3202B6EB020E75EB030E22BFAD
:10107000B61A754640EADC0055EA060E18D04FEA6B
:10108000051545EA16754FEA06164FEAC30343EA0B
:1010900052734FEAC2025FEA1C1CC0D111F4801FD8
:1010A0000BD141EA00014FF000004FF0004CB6E7D1
:1010B00011F4801F04BF01430020B4F1FD0C88BF70
:1010C000BCF5E06F3FF6AFAEB5EB030C04BFB6EB7B
:1010D000020C5FEA500C50F1000041EB045170BD6E
:1010E0000EF0004E4EEA113114EB5C04C2BFD4EB9B
:1010F0000C0541EA045170BD41F480114FF0000E1F
:10110000013C90E645EA060E8DE60CEA135594EA9A
:101110000C0F08BF95EA0C0F3FF43BAF94EA0C0F9D
:101120000AD150EA01347FF434AF95EA0C0F7FF412
:1011300025AF104619462CE795EA0C0F06D152EA66
:1011400003353FF4FDAE1046194622E750EA41064A
:1011500018BF52EA43067FF4C5AE50EA41047FF45B
:101160000DAF52EA43057FF4EBAE12E74A0011D20D
:1011700012F5001211D20DD56FF47873B3EB6252F1
:101180000ED44FEAC12343F0004343EA505323FAFD
:1011900002F070474FF00000704750EA013002D172
:1011A0004FF0FF3070474FF00000704770B50F4EA2
:1011B0000F4D761BB61018BF002405D0013455F82A
:1011C000043B9847A642F9D10A4E0B4D00F0F6F8C1
:1011D000761BB61018BF002406D0013455F8043B26
:1011E0009847A642F9D170BD70BD00BFC813080072
:1011F000C8130800D0130800C8130800024B13B12D
:10120000024800F005B87047000000001D120800F9
:10121000002301461A46184600F01EB838B50A4C9D
:101220000A4D641BA4100AD004F18043013B05EB76
:101230008305013C55F804399847002CF9D1BDE8E5
:10124000384000F0C5B800BFE0130800DC13080008
:10125000704700BF704700BF2DE9F8432C4D06468C
:10126000286898460F469146FFF7F2FF294B1C6805
:10127000D4F84831002B3ED05A681F2A1CDC02F1FA
:10128000010E76B1012103EB8204C4F88890D3F8F3
:10129000880191400843022EC3F88801C4F80881F0
:1012A00023D00232C3F804E0286843F82270FFF725
:1012B000D1FF0020BDE8F883174B0BB34FF4C87083
:1012C000AFF300800346D8B10020D4F848114FF0A6
:1012D000010E586019600246C4F84831C3F888010D
:1012E000C3F88C01002EDCD0CCE7D3F88C0101438D
:1012F000C3F88C11D5E704F5A673C4F84831BBE7F1
:101300002868FFF7A7FF4FF0FF30BDE8F88300BF64
:1013100030040020B81308000000000043414E30A4
:1013200020696E746572727570740A0D0000000099
:1013300043414E30206D6573736167652061727241
:101340006976656420696E206E6F6E2D75736564B5
:10135000206D61696C626F780A0D00006D657373B2
:101360006167652069643A2025640A0D0000000069
:101370006D6573736167652064617461206C656E6F
:101380006774683A2025640A0D0000002564200077
:10139000286E756C6C2900004552523A2055415216
:1013A0005420525820627566666572206973206603
:1013B000756C6C0A0D00000008000020F8B500BF35
:1013C000F8BC08BC9E467047FD11080019010800D2
:1013D000F8B500BFF8BC08BC9E467047F500080091
:1013E00000093D000000000000000000F4020020A1
:1013F0005C030020C4030020000000000000000087
:1014000000000000000000000000000000000000DC
:1014100000000000000000000000000000000000CC
:1014200000000000000000000000000000000000BC
:1014300000000000000000000000000000000000AC
:10144000000000000000000000000000000000009C
:10145000000000000000000000000000000000008C
:10146000000000000000000000000000000000007C
:10147000000000000000000000000000000000006C
:10148000000000000000000000000000000000005C
:1014900001000000000000000E33CDAB34126DE6F9
:1014A000ECDE05000B000000000000000000000062
:1014B000000000000000000000000000000000002C
:1014C000000000000000000000000000000000001C
:1014D000000000000000000000000000000000000C
:1014E00000000000000000000000000000000000FC
:04181000A40400200C
:040000038000000079
:00000001FF
