S01700004763634170706C69636174696F6E312E737265635B
S11300000C9438000C9455000C9455000C94580131
S11300100C9455000C9455000C9455000C94550008
S11300200C9455000C9455000C9455000C945500F8
S11300300C9455000C9455000C9455000C945500E8
S11300400C9455000C9455000C9455000C945500D8
S11300500C9455000C9455000C9455000C945500C8
S11300600C9455000C9455000C9455000C945500B8
S113007011241FBECFEFD4E0DEBFCDBF12E0A0E05D
S1130080B1E0EEE2F1E102C005900D92AC34B107AB
S1130090D9F722E0ACE4B2E001C01D92AB35B2075F
S11300A0E1F70E94A6010C9495080C94000085B712
S11300B0806885BF80B7806280BF309880E090E020
S11300C00895B89A83B7886083BF83B78F7B83BF53
S11300D083B7806183BF83B7816083BF8AE081BFB8
S11300E008958068E0E0F4E1808384EA8A95F1F77A
S11300F0808108950E94AA028EE00E944902807EB7
S1130100803449F08AE091E09F938F930E947304B6
S11301100F900F900895F89478948EE00E9449020D
S1130120807E803441F08AE091E09F938F930E9417
S113013073040F900F900895CF92DF92EF92FF9285
S11301401F93CF93DF936C0180914C021F928F9386
S11301508CE291E09F938F930E94730488E00E9445
S11301604902C82F82E60E944902829586958770CB
S1130170C82B8C2F90E0F6019183808385E60E9442
S113018049028F70F60182831F928F938BE391E073
S11301909F938F930E947304F60182812DB73EB71B
S11301A0285F3F4F0FB6F8943EBF0FBE2DBF882384
S11301B0A9F0760133E0E30EF11C16E6C0E0D0E0CE
S11301C0812F0E944902F70181937F0121961F5FCD
S11301D0F601828190E0C817D90794F310924C027B
S11301E040E06FEF8CE20E948802DF91CF911F9173
S11301F0FF90EF90DF90CF90089580E30E94490232
S113020083FB882780F991E089270895CF92DF92B4
S1130210EF92FF921F93CF93DF936C010E94FD0036
S1130220882391F1F60160817181769567957695C1
S113023067957695679581E40E945B02F60160817B
S11302406295660F607E82E40E945B02F601628121
S113025085E40E945B02F60182818823A9F076017D
S1130260F3E0EF0EF11C16E4C0E0D0E0F701619179
S11302707F01812F0E945B0221961F5FF60182811C
S113028090E0C817D90794F382E80E946F02DF91C7
S1130290CF911F91FF90EF90DF90CF90089540E0B1
S11302A061E08CE20E94880281E080934C02089510
S11302B01F920F920FB60F9211242F933F934F93D7
S11302C05F936F937F938F939F93AF93BF93EF93BA
S11302D0FF938FEF9FE20197F1F700C000008CE6D7
S11302E091E09F938F930E9473040E944F010F909B
S11302F00F90FF91EF91BF91AF919F918F917F915B
S11303006F915F914F913F912F910F900FBE0F907E
S11303101F901895CF9380E090E00E947100C82F41
S113032081E090E00E947100ECECF4E03197F1F789
S113033000C00000C0934E0280934D02CF910895F7
S113034087B3817F87BB0E948A010895CF93DF938F
S1130350CDB7DEB72B970FB6F894DEBF0FBECDBF77
S11303600E9457008FE190E00E941B040E946100EC
S11303700E94A0010E940B040E947A000E94400384
S11303800E94340360E080E00E94DF0381E090E09B
S11303909A83898385E08B839AE09C8392E09D8392
S11303A093E09E8394E09F8388870F2EF7E98F2E36
S11303B0F1E09F2EF02D0F2EF6EBAF2EF1E0BF2EC5
S11303C0F02D0F2EF4EDCF2EF1E0DF2EF02D0F2EB9
S11303D0F1EFEF2EF1E0FF2EF02D0EEF11E08EE0A5
S11303E00E9449021F928F939F928F920E947304DE
S11303F087EA91E60197F1F700C00000CE0101966B
S11304000E9406018EE00E9449021F928F93BF92C0
S1130410AF920E94730480EB0E9449021F928F9353
S1130420DF92CF920E94730487EA91E60197F1F775
S113043000C000000E947A021F928F93FF92EF92F5
S11304400E947304CE0101960E949C0088851F922D
S11304508F938F811F928F938E811F928F938D81A3
S11304601F928F938C811F928F931F930F930E94DF
S1130470730487EA91E60197F1F700C000000FB614
S1130480F894DEBF0FBECDBFAACFC4980895C49A16
S11304900895CF93C82F0E94450283E00E94000470
S11304A08C2F0E9400040E940404C82F0E9447025B
S11304B08C2FCF910895CF93DF93C82FD62F0E940E
S11304C0450282E00E9400048D2F0E9400048C2FBC
S11304D00E9400040E944702DF91CF910895CF93B8
S11304E0C82F0E9445028C2F0E9400040E944702DC
S11304F0CF910895CF930E94450280EA0E940004A0
S11305000E940404C82F0E9447028C2FCF910895A3
S11305101F93CF93DF93182FD62FC42F0E94450229
S113052085E00E940004812F0E9400048D2F0E9408
S113053000048C2F0E9400040E944702DF91CF9197
S11305401F9108950E94450280EC0E9400040E94BD
S1130550470208950E94F8030E94A20260E680E622
S11305600E945B0260E780E60E945B028EE00E94CC
S11305704902807E803851F087E192E09F938F9307
S11305800E9473040F900F9081E008952FE38DE093
S113059093E0215080409040E1F700C000006FE0FC
S11305A080E40E945B028EE00E944902807E8034D7
S11305B051F08AE091E09F938F930E9473040F900F
S11305C00F9081E0089580E00895109250021092F7
S11305D04F02E0910801F091090181E28083E091EA
S11305E00801F09109011082E0910801F0910901DC
S11305F08FE78083E0910801F091090182E2808312
S1130600E0910801F09109011082E0910801F09154
S1130610090187E0808380E090E008958093500290
S1130620E0910801F09109011082E0910801F09134
S1130630090190E19083E0910801F091090180554E
S1130640808380E090E008950E940E0380E890E0AB
S1130650E0910601F091070110820197C9F70E9409
S1130660E50280E090E00895CF93C0E08C2F0E94D3
S11306702403CF5FC830D1F780E090E0CF91089594
S113068085B7806885BF80B7806280BFE09108012C
S1130690F09109018EEA8083E0910801F09109014B
S11306A081EA8083E0910801F09109018AED808359
S11306B0E0910801F091090182E18083E091080151
S11306C0F091090188EC8083E0910801F09109011F
S11306D088EA8083E0910801F09109018FE3808327
S11306E0E0910801F091090185ED8083E091080112
S11306F0F091090180E88083E0910801F0910901FB
S113070081E88083E0910801F091090180E580830C
S1130710E0910801F091090189ED8083E0910801DD
S1130720F091090181E28083E0910801F0910901CF
S113073080E28083E0910801F091090182E08083E6
S1130740E0910801F09109018BED8083E0910801AB
S1130750F091090180E38083E0910801F09109019F
S11307608DEA8083E0910801F09109011082E09103
S11307700801F091090184EA8083E0910801F09175
S1130780090186EA8083E0910801F09109018FEA6A
S11307908083E0910801F091090180EB8083E0916E
S11307A00801F09109011082E0910801F09109011A
S11307B080E180830E9434030E94E5020895CF9370
S11307C0C62F0E940E03C0934F02E0910801F091DE
S11307D009016C2F70E0769567956083E0910801BC
S11307E0F0910901605F608380E090E0CF9108950B
S11307F087B3806B87BBBE988DB181658DB9089531
S11308008FB9779BFECF089580E00E940004779B08
S1130810FECF8FB1089585B7806885BF80B78062A9
S113082080BF08955D9BFECF8CB908955F9BFECF7A
S11308308CB190E0089590BD89B988E18AB98EE8B9
S113084080BD66E174E082E194E00E94280408958A
S11308500F931F93CF93DF93009731F461157105C4
S113086019F480E090E03AC08B01EC016EE070E096
S113087081E090E00E946A06FC01892B91F380E8F4
S113088083830115110571F01387028781E883833F
S11308908091510290915202892B21F4F0935202DB
S11308A0E09351022097C9F0D187C0878381826089
S11308B083838091530290915402892B71F4F093B5
S11308C05402E09353028091550290915602892B71
S11308D021F4F0935602E0935502CF01DF91CF91BA
S11308E01F910F910895A0E0B0E0E9E7F4E00C94C3
S11308F06E08AE014B5F5F4FFA0161917191AF01D8
S113090080915302909154020E948904E2E00C9475
S11309108A08ABE0B0E0EFE8F4E00C945E086C0108
S11309207B018A01FC0117821682838181FFCCC17D
S1130930CE0101963C01F6019381F70193FD859167
S113094093FF81917F01882309F4BAC1853239F478
S113095093FD859193FF81917F01853229F4B6013E
S113096090E00E94C407E7CF912C212C312CFFE1A9
S1130970F315D8F08B3279F038F4803279F0833281
S1130980A1F4232D20611DC08D3261F0803369F400
S1130990232D216016C0832D8260382EE32DE46060
S11309A03E2E2AC0F32DF8601DC037FC2DC020ED6B
S11309B0280F2A3040F08E32B9F436FC81C1232D41
S11309C02064322E19C036FE06C08AE0989E200D9F
S11309D01124922E11C0EAE02E9E200D1124222E05
S11309E0F32DF0623F2E08C08C3621F4832D8068ED
S11309F0382E02C0883641F4F70193FD859193FFA8
S1130A0081917F018111B3CF982F9F7D95549330AD
S1130A1028F40C5F1F4F9FE399830DC0833631F098
S1130A20833771F0833509F059C021C0F801808102
S1130A3089830E5F1F4F88248394912C530113C024
S1130A402801F2E04F0E511CF801A080B18036FE5F
S1130A5003C0692D70E002C06FEF7FEFC5010E94F3
S1130A60B9074C018201F32DFF773F2E16C02801F0
S1130A7022E0420E511CF801A080B18036FE03C072
S1130A80692D70E002C06FEF7FEFC5010E94A707D8
S1130A904C01F32DF0683F2E820133FC1BC0822DE4
S1130AA090E088169906B0F4B60180E290E00E94C6
S1130AB0C4072A94F4CFF50137FC859137FE819160
S1130AC05F01B60190E00E94C40721102A9421E03E
S1130AD0821A91088114910471F7E8C0843611F0E8
S1130AE0893641F5F80137FE07C060817181828142
S1130AF093810C5F1F4F08C060817181072E000C29
S1130B00880B990B0E5F1F4FF32DFF763F2E97FF37
S1130B1009C090958095709561957F4F8F4F9F4F39
S1130B20F0683F2E2AE030E0A3010E940008882EDE
S1130B30861845C0853731F4232D2F7EB22E2AE046
S1130B4030E025C0932D997FB92E8F36C1F018F46B
S1130B50883579F0B5C0803719F0883721F0B0C0F6
S1130B60E92FE061BE2EB4FE0DC0FB2DF460BF2E54
S1130B7009C034FE0AC0292F2660B22E06C028E020
S1130B8030E005C020E130E002C020E132E0F801AD
S1130B90B7FE07C060817181828193810C5F1F4F12
S1130BA006C06081718180E090E00E5F1F4FA30159
S1130BB00E940008882E8618FB2DFF773F2E36FEF4
S1130BC00DC0232D2E7FA22E891458F434FE0BC0A1
S1130BD032FC09C0832D8E7EA82E05C0B82CA32C10
S1130BE003C0B82C01C0B92CA4FE0FC0FE01E80D4F
S1130BF0F11D8081803321F49A2D997EA92E09C09C
S1130C00A2FE06C0B394B39404C08A2D867809F07A
S1130C10B394A3FC11C0A0FE06C0B21488F4280C3F
S1130C20922C9B180EC0B21460F4B60180E290E0DE
S1130C300E94C407B394F7CFB21418F42B1802C05F
S1130C40982C212CA4FE10C0B60180E390E00E94F1
S1130C50C407A2FE17C0A1FC03C088E790E002C04D
S1130C6088E590E0B6010CC08A2D867859F0A1FE83
S1130C7002C08BE201C080E2A7FC8DE2B60190E0E5
S1130C800E94C407891438F4B60180E390E00E94FE
S1130C90C4079A94F7CF8A94F301E80DF11D80817B
S1130CA0B60190E00E94C4078110F5CF222009F418
S1130CB042CEB60180E290E00E94C4072A94F6CFA7
S1130CC0F6018681978102C08FEF9FEF2B96E2E1B8
S1130CD00C947A080F931F93CF93DF93869F800120
S1130CE0879F100D969F100D1124C8010E9486063F
S1130CF0EC01009729F0A80160E070E00E94B207BF
S1130D00CE01DF91CF911F910F9108950F931F93FF
S1130D10CF93DF938230910510F482E090E0E0916C
S1130D205902F0915A0220E030E0A0E0B0E03097A0
S1130D3019F1408151810281138148175907C8F084
S1130D408417950769F4109731F012960C93129753
S1130D5013961C9327C00093590210935A0222C081
S1130D602115310519F04217530718F49A01BD01F2
S1130D70EF01DF01F801DBCF21153105F9F0281B64
S1130D80390B2430310580F48A819B81611571050A
S1130D9021F0FB019383828304C090935A028093D1
S1130DA05902FE01329644C0FE01E20FF31F819303
S1130DB0919322503109398328833AC020915702F4
S1130DC030915802232B41F4209102013091030108
S1130DD03093580220935702209100013091010171
S1130DE02115310541F42DB73EB7409104015091CE
S1130DF00501241B350BE0915702F0915802E217CC
S1130E00F307A0F42E1B3F0B2817390778F0AC0129
S1130E104E5F5F4F2417350748F04E0F5F1F509306
S1130E205802409357028193919302C0E0E0F0E0AE
S1130E30CF01DF91CF911F910F910895CF93DF934D
S1130E40009709F481C0FC01329713821282A091A9
S1130E505902B0915A02109781F420813181820F96
S1130E60931F20915702309158022817390751F5E2
S1130E70F0935802E093570267C0ED0120E030E0A0
S1130E80CE17DF0740F44A815B819E01411551056D
S1130E90F1F0EA01F5CFD383C28340815181840FFD
S1130EA0951FC817D90759F488819981840F951F14
S1130EB00296918380838A819B8193838283211507
S1130EC0310529F4F0935A02E09359023DC0E90137
S1130ED0FB83EA8349915991C40FD51FEC17FD0791
S1130EE061F480819181840F951F0296E9019983B1
S1130EF08883828193819B838A83E0E0F0E0129669
S1130F008D919C911397009719F0FD01DC01F7CFA7
S1130F108D919C9111979D012E5F3F4F820F931FDE
S1130F2020915702309158022817390769F43097F5
S1130F3029F410925A021092590202C013821282AA
S1130F40B0935802A0935702DF91CF910895FC010A
S1130F500590615070400110D8F7809590958E0FE0
S1130F609F1F0895DC0101C06D9341505040E0F78C
S1130F700895FC016150704001900110D8F78095EC
S1130F8090958E0F9F1F08950F931F93CF93DF9318
S1130F90FB01238121FD03C08FEF9FEF2CC022FFB3
S1130FA016C046815781248135814217530744F482
S1130FB0A081B1819D012F5F3F4F318320838C93AA
S1130FC0268137812F5F3F4F3783268314C08B01DF
S1130FD0EC01FB010084F185E02D0995892BE1F6F4
S1130FE0D80116968D919C911797019617969C930C
S1130FF08E931697CE01DF91CF911F910F91089593
S1131000FA01AA27283051F1203181F1E8946F9335
S11310106E7F6E5F7F4F8F4F9F4FAF4FB1E03ED0DB
S1131020B4E03CD0670F781F891F9A1FA11D680F79
S1131030791F8A1F911DA11D6A0F711D811D911DAC
S1131040A11D20D009F468943F912AE0269F112421
S11310503019305D3193DEF6CF010895462F477085
S1131060405D4193B3E00FD0C9F7F6CF462F4F70E0
S1131070405D4A3318F0495D31FD4052419302D03E
S1131080A9F7EACFB4E0A6959795879577956795E4
S1131090BA95C9F700976105710508959B01AC01E4
S11310A00A2E06945795479537952795BA95C9F70B
S11310B0620F731F841F951FA01D08952F923F92E6
S11310C04F925F926F927F928F929F92AF92BF9254
S11310D0CF92DF92EF92FF920F931F93CF93DF9300
S11310E0CDB7DEB7CA1BDB0B0FB6F894DEBF0FBE5D
S11310F0CDBF09942A88398848885F846E847D84AA
S11311008C849B84AA84B984C884DF80EE80FD80AB
S11311100C811B81AA81B981CE0FD11D0FB6F89421
S1111120DEBF0FBECDBFED010895F894FFCFE2
S113112E00005B022000001200104D435032353196
S113113E35206973204E4F542073657420746F20CC
S113114E4C4F4F504241434B210A0D0043414E2018
S113115E666C61673A2025640A0D002D2D2D2D2D08
S113116E2D2D2D2D204D455353414745204C454E95
S113117E4754482121203A202564202D2D2D2D2D34
S113118E2D2D2D2D2D2D2D200A200D00456720658A
S113119E7220696E6E692063616E20696E74657269
S11311AE7570742C20686572207661206461206BE2
S11311BE6F73656C6567004245464F524520534533
S11311CE4E44494E472043616E737461743A202530
S11311DE78200A200D0041465445522053454E4472
S11311EE494E472043616E737461743A202578200A
S11311FE0A200D0041465445522053454E44494E53
S113120E47205258535441543A202578200A200D31
S113121E00535441543A202564200A200D004441C1
S113122E54413A2025642025642025642025642019
S113123E2564200A200D004D435032353135206986
S113124E73204E4F5420696E20636F6E6669677506
S113125E726174696F6E206D6F646520616674656A
S10F126E72207265736574210A0D000083
S9030000FC
